{
  "contractName": "KittyMarketPlace",
  "abi": [
    {
      "anonymous": false,
      "inputs": [
        {
          "indexed": false,
          "internalType": "string",
          "name": "TxType",
          "type": "string"
        },
        {
          "indexed": false,
          "internalType": "address",
          "name": "owner",
          "type": "address"
        },
        {
          "indexed": false,
          "internalType": "uint256",
          "name": "tokenId",
          "type": "uint256"
        }
      ],
      "name": "MarketTransaction",
      "type": "event"
    },
    {
      "inputs": [],
      "name": "owner",
      "outputs": [
        {
          "internalType": "address",
          "name": "",
          "type": "address"
        }
      ],
      "stateMutability": "view",
      "type": "function",
      "constant": true
    },
    {
      "inputs": [
        {
          "internalType": "address",
          "name": "newOwner",
          "type": "address"
        }
      ],
      "name": "transferOwnership",
      "outputs": [],
      "stateMutability": "nonpayable",
      "type": "function"
    },
    {
      "inputs": [
        {
          "internalType": "address",
          "name": "_kittyContractAddress",
          "type": "address"
        }
      ],
      "name": "setKittyContract",
      "outputs": [],
      "stateMutability": "nonpayable",
      "type": "function"
    },
    {
      "inputs": [
        {
          "internalType": "uint256",
          "name": "_tokenId",
          "type": "uint256"
        }
      ],
      "name": "getOffer",
      "outputs": [
        {
          "internalType": "address",
          "name": "seller",
          "type": "address"
        },
        {
          "internalType": "uint256",
          "name": "price",
          "type": "uint256"
        },
        {
          "internalType": "uint256",
          "name": "index",
          "type": "uint256"
        },
        {
          "internalType": "uint256",
          "name": "tokenId",
          "type": "uint256"
        },
        {
          "internalType": "bool",
          "name": "active",
          "type": "bool"
        }
      ],
      "stateMutability": "view",
      "type": "function",
      "constant": true
    },
    {
      "inputs": [],
      "name": "getAllTokenOnSale",
      "outputs": [
        {
          "internalType": "uint256[]",
          "name": "",
          "type": "uint256[]"
        }
      ],
      "stateMutability": "view",
      "type": "function",
      "constant": true
    },
    {
      "inputs": [
        {
          "internalType": "uint256",
          "name": "_price",
          "type": "uint256"
        },
        {
          "internalType": "uint256",
          "name": "_tokenId",
          "type": "uint256"
        }
      ],
      "name": "setOffer",
      "outputs": [],
      "stateMutability": "nonpayable",
      "type": "function"
    },
    {
      "inputs": [
        {
          "internalType": "uint256",
          "name": "_tokenId",
          "type": "uint256"
        }
      ],
      "name": "removeOffer",
      "outputs": [],
      "stateMutability": "nonpayable",
      "type": "function"
    },
    {
      "inputs": [
        {
          "internalType": "uint256",
          "name": "_tokenId",
          "type": "uint256"
        }
      ],
      "name": "buyKitty",
      "outputs": [],
      "stateMutability": "payable",
      "type": "function",
      "payable": true
    }
  ],
  "bytecode": "0x608060405234801561001057600080fd5b50336000806101000a81548173ffffffffffffffffffffffffffffffffffffffff021916908373ffffffffffffffffffffffffffffffffffffffff1602179055506119b3806100606000396000f3fe60806040526004361061007b5760003560e01c8063941b055b1161004e578063941b055b1461014057806395a0f9c714610169578063ae5310f614610192578063f2fde38b146101ae5761007b565b80634579268a1461008057806349b3709f146100c157806362b7f94e146100ec5780638da5cb5b14610115575b600080fd5b34801561008c57600080fd5b506100a760048036038101906100a29190611066565b6101d7565b6040516100b89594939291906110fe565b60405180910390f35b3480156100cd57600080fd5b506100d66102bc565b6040516100e3919061120f565b60405180910390f35b3480156100f857600080fd5b50610113600480360381019061010e919061125d565b6104f4565b005b34801561012157600080fd5b5061012a610590565b604051610137919061128a565b60405180910390f35b34801561014c57600080fd5b50610167600480360381019061016291906112a5565b6105b4565b005b34801561017557600080fd5b50610190600480360381019061018b9190611066565b6108da565b005b6101ac60048036038101906101a79190611066565b610b26565b005b3480156101ba57600080fd5b506101d560048036038101906101d0919061125d565b610e49565b005b600080600080600080600360008881526020019081526020016000206040518060a00160405290816000820160009054906101000a900473ffffffffffffffffffffffffffffffffffffffff1673ffffffffffffffffffffffffffffffffffffffff1673ffffffffffffffffffffffffffffffffffffffff1681526020016001820154815260200160028201548152602001600382015481526020016004820160009054906101000a900460ff161515151581525050905080600001518160200151826040015183606001518460800151955095509550955095505091939590929450565b60606000806002805480602002602001604051908101604052809291908181526020016000905b828210156103a457838290600052602060002090600502016040518060a00160405290816000820160009054906101000a900473ffffffffffffffffffffffffffffffffffffffff1673ffffffffffffffffffffffffffffffffffffffff1673ffffffffffffffffffffffffffffffffffffffff1681526020016001820154815260200160028201548152602001600382015481526020016004820160009054906101000a900460ff161515151581525050815260200190600101906102e3565b5050505090506000815190506000810361040c57600067ffffffffffffffff8111156103d3576103d26112e5565b5b6040519080825280602002602001820160405280156104015781602001602082028036833780820191505090505b5093505050506104f1565b60008167ffffffffffffffff811115610428576104276112e5565b5b6040519080825280602002602001820160405280156104565781602001602082028036833780820191505090505b50905060005b828110156104e85783818151811061047757610476611314565b5b602002602001015160800151156104d55783818151811061049b5761049a611314565b5b6020026020010151606001518286815181106104ba576104b9611314565b5b60200260200101818152505084806104d190611372565b9550505b80806104e090611372565b91505061045c565b50809450505050505b90565b60008054906101000a900473ffffffffffffffffffffffffffffffffffffffff1673ffffffffffffffffffffffffffffffffffffffff163373ffffffffffffffffffffffffffffffffffffffff161461054c57600080fd5b80600160006101000a81548173ffffffffffffffffffffffffffffffffffffffff021916908373ffffffffffffffffffffffffffffffffffffffff16021790555050565b60008054906101000a900473ffffffffffffffffffffffffffffffffffffffff1681565b6105bd81610f19565b600015156003600083815260200190815260200160002060040160009054906101000a900460ff16151514610627576040517f08c379a000000000000000000000000000000000000000000000000000000000815260040161061e9061143d565b60405180910390fd5b600160009054906101000a900473ffffffffffffffffffffffffffffffffffffffff1673ffffffffffffffffffffffffffffffffffffffff1663e985e9c533306040518363ffffffff1660e01b815260040161068492919061145d565b602060405180830381865afa1580156106a1573d6000803e3d6000fd5b505050506040513d601f19601f820116820180604052508101906106c591906114b2565b610704576040517f08c379a00000000000000000000000000000000000000000000000000000000081526004016106fb9061152b565b60405180910390fd5b60006040518060a001604052803373ffffffffffffffffffffffffffffffffffffffff1681526020018481526020016002805490508152602001838152602001600115158152509050806003600084815260200190815260200160002060008201518160000160006101000a81548173ffffffffffffffffffffffffffffffffffffffff021916908373ffffffffffffffffffffffffffffffffffffffff16021790555060208201518160010155604082015181600201556060820151816003015560808201518160040160006101000a81548160ff021916908315150217905550905050600281908060018154018082558091505060019003906000526020600020906005020160009091909190915060008201518160000160006101000a81548173ffffffffffffffffffffffffffffffffffffffff021916908373ffffffffffffffffffffffffffffffffffffffff16021790555060208201518160010155604082015181600201556060820151816003015560808201518160040160006101000a81548160ff02191690831515021790555050507fd99e4fad9ad6313b1feb588fa8e605e3a9873172f2024330c35dd2b4041a438633836040516108cd929190611597565b60405180910390a1505050565b6108e381610f19565b600260016002805490506108f791906115d3565b8154811061090857610907611314565b5b906000526020600020906005020160026003600084815260200190815260200160002060020154815481106109405761093f611314565b5b90600052602060002090600502016000820160009054906101000a900473ffffffffffffffffffffffffffffffffffffffff168160000160006101000a81548173ffffffffffffffffffffffffffffffffffffffff021916908373ffffffffffffffffffffffffffffffffffffffff1602179055506001820154816001015560028201548160020155600382015481600301556004820160009054906101000a900460ff168160040160006101000a81548160ff0219169083151502179055509050506002805480610a1557610a14611607565b5b6001900381819060005260206000209060050201600080820160006101000a81549073ffffffffffffffffffffffffffffffffffffffff02191690556001820160009055600282016000905560038201600090556004820160006101000a81549060ff02191690555050905560036000828152602001908152602001600020600080820160006101000a81549073ffffffffffffffffffffffffffffffffffffffff02191690556001820160009055600282016000905560038201600090556004820160006101000a81549060ff021916905550507fd99e4fad9ad6313b1feb588fa8e605e3a9873172f2024330c35dd2b4041a43863382604051610b1b929190611682565b60405180910390a150565b6000600360008381526020019081526020016000206040518060a00160405290816000820160009054906101000a900473ffffffffffffffffffffffffffffffffffffffff1673ffffffffffffffffffffffffffffffffffffffff1673ffffffffffffffffffffffffffffffffffffffff1681526020016001820154815260200160028201548152602001600382015481526020016004820160009054906101000a900460ff161515151581525050905080602001513414610c1d576040517f08c379a0000000000000000000000000000000000000000000000000000000008152600401610c149061170a565b60405180910390fd5b8060800151610c61576040517f08c379a0000000000000000000000000000000000000000000000000000000008152600401610c5890611776565b60405180910390fd5b60006002600360008581526020019081526020016000206002015481548110610c8d57610c8c611314565b5b906000526020600020906005020160040160006101000a81548160ff02191690831515021790555060036000838152602001908152602001600020600080820160006101000a81549073ffffffffffffffffffffffffffffffffffffffff02191690556001820160009055600282016000905560038201600090556004820160006101000a81549060ff02191690555050600160009054906101000a900473ffffffffffffffffffffffffffffffffffffffff1673ffffffffffffffffffffffffffffffffffffffff166323b872dd308360000151856040518463ffffffff1660e01b8152600401610d81939291906117f5565b600060405180830381600087803b158015610d9b57600080fd5b505af1158015610daf573d6000803e3d6000fd5b50505050600081602001511115610e0c57806000015173ffffffffffffffffffffffffffffffffffffffff166108fc349081150290604051600060405180830381858888f19350505050158015610e0a573d6000803e3d6000fd5b505b7fd99e4fad9ad6313b1feb588fa8e605e3a9873172f2024330c35dd2b4041a43863383604051610e3d929190611878565b60405180910390a15050565b60008054906101000a900473ffffffffffffffffffffffffffffffffffffffff1673ffffffffffffffffffffffffffffffffffffffff163373ffffffffffffffffffffffffffffffffffffffff1614610ea157600080fd5b600073ffffffffffffffffffffffffffffffffffffffff168173ffffffffffffffffffffffffffffffffffffffff1614610f1657806000806101000a81548173ffffffffffffffffffffffffffffffffffffffff021916908373ffffffffffffffffffffffffffffffffffffffff1602179055505b50565b6000600160009054906101000a900473ffffffffffffffffffffffffffffffffffffffff1673ffffffffffffffffffffffffffffffffffffffff16636352211e836040518263ffffffff1660e01b8152600401610f7691906118b4565b602060405180830381865afa158015610f93573d6000803e3d6000fd5b505050506040513d601f19601f82011682018060405250810190610fb791906118e4565b90503373ffffffffffffffffffffffffffffffffffffffff168173ffffffffffffffffffffffffffffffffffffffff1614611027576040517f08c379a000000000000000000000000000000000000000000000000000000000815260040161101e9061195d565b60405180910390fd5b5050565b600080fd5b6000819050919050565b61104381611030565b811461104e57600080fd5b50565b6000813590506110608161103a565b92915050565b60006020828403121561107c5761107b61102b565b5b600061108a84828501611051565b91505092915050565b600073ffffffffffffffffffffffffffffffffffffffff82169050919050565b60006110be82611093565b9050919050565b6110ce816110b3565b82525050565b6110dd81611030565b82525050565b60008115159050919050565b6110f8816110e3565b82525050565b600060a08201905061111360008301886110c5565b61112060208301876110d4565b61112d60408301866110d4565b61113a60608301856110d4565b61114760808301846110ef565b9695505050505050565b600081519050919050565b600082825260208201905092915050565b6000819050602082019050919050565b61118681611030565b82525050565b6000611198838361117d565b60208301905092915050565b6000602082019050919050565b60006111bc82611151565b6111c6818561115c565b93506111d18361116d565b8060005b838110156112025781516111e9888261118c565b97506111f4836111a4565b9250506001810190506111d5565b5085935050505092915050565b6000602082019050818103600083015261122981846111b1565b905092915050565b61123a816110b3565b811461124557600080fd5b50565b60008135905061125781611231565b92915050565b6000602082840312156112735761127261102b565b5b600061128184828501611248565b91505092915050565b600060208201905061129f60008301846110c5565b92915050565b600080604083850312156112bc576112bb61102b565b5b60006112ca85828601611051565b92505060206112db85828601611051565b9150509250929050565b7f4e487b7100000000000000000000000000000000000000000000000000000000600052604160045260246000fd5b7f4e487b7100000000000000000000000000000000000000000000000000000000600052603260045260246000fd5b7f4e487b7100000000000000000000000000000000000000000000000000000000600052601160045260246000fd5b600061137d82611030565b91507fffffffffffffffffffffffffffffffffffffffffffffffffffffffffffffffff82036113af576113ae611343565b5b600182019050919050565b600082825260208201905092915050565b7f746865726520697320616c726561647920616e206f666665722061637469766560008201527f20666f72207468697320746f6b656e0000000000000000000000000000000000602082015250565b6000611427602f836113ba565b9150611432826113cb565b604082019050919050565b600060208201905081810360008301526114568161141a565b9050919050565b600060408201905061147260008301856110c5565b61147f60208301846110c5565b9392505050565b61148f816110e3565b811461149a57600080fd5b50565b6000815190506114ac81611486565b92915050565b6000602082840312156114c8576114c761102b565b5b60006114d68482850161149d565b91505092915050565b7f436f6e7472616374206e65656420746f20626520617070726f76656400000000600082015250565b6000611515601c836113ba565b9150611520826114df565b602082019050919050565b6000602082019050818103600083015261154481611508565b9050919050565b7f437265617465206f666665720000000000000000000000000000000000000000600082015250565b6000611581600c836113ba565b915061158c8261154b565b602082019050919050565b600060608201905081810360008301526115b081611574565b90506115bf60208301856110c5565b6115cc60408301846110d4565b9392505050565b60006115de82611030565b91506115e983611030565b925082820390508181111561160157611600611343565b5b92915050565b7f4e487b7100000000000000000000000000000000000000000000000000000000600052603160045260246000fd5b7f52656d6f7665206f666665720000000000000000000000000000000000000000600082015250565b600061166c600c836113ba565b915061167782611636565b602082019050919050565b6000606082019050818103600083015261169b8161165f565b90506116aa60208301856110c5565b6116b760408301846110d4565b9392505050565b7f77726f6e6720616d6f756e742100000000000000000000000000000000000000600082015250565b60006116f4600d836113ba565b91506116ff826116be565b602082019050919050565b60006020820190508181036000830152611723816116e7565b9050919050565b7f746865206f666665722073686f756c6420626520616374697665210000000000600082015250565b6000611760601b836113ba565b915061176b8261172a565b602082019050919050565b6000602082019050818103600083015261178f81611753565b9050919050565b6000819050919050565b60006117bb6117b66117b184611093565b611796565b611093565b9050919050565b60006117cd826117a0565b9050919050565b60006117df826117c2565b9050919050565b6117ef816117d4565b82525050565b600060608201905061180a60008301866110c5565b61181760208301856117e6565b61182460408301846110d4565b949350505050565b7f4275790000000000000000000000000000000000000000000000000000000000600082015250565b60006118626003836113ba565b915061186d8261182c565b602082019050919050565b6000606082019050818103600083015261189181611855565b90506118a060208301856110c5565b6118ad60408301846110d4565b9392505050565b60006020820190506118c960008301846110d4565b92915050565b6000815190506118de81611231565b92915050565b6000602082840312156118fa576118f961102b565b5b6000611908848285016118cf565b91505092915050565b7f4f6e6c7920666f7220746f6b656e206f776e6572000000000000000000000000600082015250565b60006119476014836113ba565b915061195282611911565b602082019050919050565b600060208201905081810360008301526119768161193a565b905091905056fea264697066735822122050bce20170c556ae52b5b4d4a10d2f13e16fb0c15cd18e24e007a4645eafc29e64736f6c63430008110033",
  "immutableReferences": {},
  "source": "// SPDX-License-Identifier: MIT\r\n\r\npragma solidity 0.8.17;\r\n\r\nimport \"./Kitty.sol\";\r\nimport \"./Ownable.sol\";\r\nimport \"./IKittyMarketplace.sol\";\r\n\r\ncontract KittyMarketPlace is Ownable, IKittyMarketPlace {\r\n    KittyContract private _kittyContract;\r\n\r\n    struct Offer {\r\n        address payable seller;\r\n        uint256 price;\r\n        uint256 index;\r\n        uint256 tokenId;\r\n        bool active;\r\n    }\r\n\r\n    Offer[] offers;\r\n\r\n    mapping(uint256 => Offer) tokenIdToOffer;\r\n\r\n    function setKittyContract(address _kittyContractAddress) external onlyOwner{\r\n        _kittyContract = KittyContract(_kittyContractAddress);\r\n    }\r\n\r\n    function getOffer(uint256 _tokenId) external view returns ( address seller, uint256 price, uint256 index, uint256 tokenId, bool active){\r\n        Offer memory _offer = tokenIdToOffer[_tokenId];\r\n        return(\r\n            _offer.seller,\r\n            _offer.price,\r\n            _offer.index,\r\n            _offer.tokenId,\r\n            _offer.active\r\n        );\r\n        \r\n    }\r\n\r\n    function getAllTokenOnSale() external view returns(uint256[] memory){\r\n       uint counter = 0;\r\n       Offer[] memory _offers = offers;\r\n        uint totalOffers = _offers.length;\r\n       if(totalOffers == 0){\r\n            return new uint[](0);\r\n       }else{\r\n            uint[] memory listOfOffers = new uint[](totalOffers);\r\n            for(uint i = 0; i < totalOffers; i++){\r\n                if(_offers[i].active){\r\n                    listOfOffers[counter] = _offers[i].tokenId;\r\n                    counter++;\r\n                }\r\n            }\r\n            return listOfOffers;\r\n       }\r\n       \r\n    }\r\n\r\n\r\n    function setOffer(uint256 _price, uint256 _tokenId) external{\r\n        _isTokenOwner(_tokenId);\r\n        require(tokenIdToOffer[_tokenId].active == false, \"there is already an offer active for this token\");\r\n        require(_kittyContract.isApprovedForAll(msg.sender, address(this)), \"Contract need to be approved\");\r\n        Offer memory newOffer = Offer(payable(msg.sender), _price, offers.length, _tokenId, true);\r\n        tokenIdToOffer[_tokenId] = newOffer;\r\n        offers.push(newOffer);\r\n        emit MarketTransaction(\"Create offer\", msg.sender, _tokenId);\r\n    }\r\n\r\n    function removeOffer(uint256 _tokenId) public{\r\n        _isTokenOwner(_tokenId);\r\n        offers[tokenIdToOffer[_tokenId].index] = offers[offers.length - 1];\r\n        offers.pop();\r\n        delete tokenIdToOffer[_tokenId];     \r\n        emit MarketTransaction(\"Remove offer\", msg.sender, _tokenId);\r\n    }\r\n\r\n    function buyKitty(uint256 _tokenId) external payable{\r\n        Offer memory _offer = tokenIdToOffer[_tokenId];\r\n        require(msg.value == _offer.price, \"wrong amount!\");\r\n        require(_offer.active, \"the offer should be active!\");\r\n        offers[tokenIdToOffer[_tokenId].index].active = false;\r\n        delete tokenIdToOffer[_tokenId];  \r\n        _kittyContract.transferFrom(address(this), _offer.seller, _tokenId);\r\n        if(_offer.price > 0){\r\n            _offer.seller.transfer(msg.value);\r\n        }\r\n        emit MarketTransaction(\"Buy\", msg.sender, _tokenId);\r\n    }\r\n\r\n    function _isTokenOwner(uint _tokenId) internal view {\r\n        address _tokenOwner = _kittyContract.ownerOf(_tokenId);\r\n        require(_tokenOwner == msg.sender, \"Only for token owner\");\r\n    }\r\n\r\n}",
  "sourcePath": "C:\\Users\\Zayna\\Desktop\\cryptokitties-clone\\contracts\\KittyMarketplace.sol",
  "compiler": {
    "name": "solc",
    "version": "0.8.17+commit.8df45f5f.Emscripten.clang"
  },
  "schemaVersion": "3.4.3",
  "updatedAt": "2022-09-26T00:05:45.174Z",
  "networkType": "ethereum",
  "devdoc": {
    "kind": "dev",
    "methods": {
      "transferOwnership(address)": {
        "details": "Allows the current owner to transfer control of the contract to a newOwner.",
        "params": {
          "newOwner": "The address to transfer ownership to."
        }
      }
    },
    "version": 1
  },
  "userdoc": {
    "kind": "user",
    "methods": {
      "buyKitty(uint256)": {
        "notice": "Executes the purchase of _tokenId.  Sends the funds to the seller and transfers the token using transferFrom in Kittycontract. Emits the MarketTransaction event with txType \"Buy\". Requirement: The msg.value needs to equal the price of _tokenId Requirement: There must be an active offer for _tokenId"
      },
      "getAllTokenOnSale()": {
        "notice": "Get all tokenId's that are currently for sale. Returns an empty arror if none exist."
      },
      "getOffer(uint256)": {
        "notice": "Get the details about a offer for _tokenId. Throws an error if there is no active offer for _tokenId."
      },
      "removeOffer(uint256)": {
        "notice": "Removes an existing offer.  Emits the MarketTransaction event with txType \"Remove offer\" Requirement: Only the seller of _tokenId can remove an offer. "
      },
      "setKittyContract(address)": {
        "notice": "Set the current KittyContract address and initialize the instance of Kittycontract. Requirement: Only the contract owner can call."
      },
      "setOffer(uint256,uint256)": {
        "notice": "Creates a new offer for _tokenId for the price _price.  Emits the MarketTransaction event with txType \"Create offer\" Requirement: Only the owner of _tokenId can create an offer.  Requirement: There can only be one active offer for a token at a time. Requirement: Marketplace contract (this) needs to be an approved operator when the offer is created."
      }
    },
    "version": 1
  }
}