{
  "contractName": "KittyContract",
  "abi": [
    {
      "anonymous": false,
      "inputs": [
        {
          "indexed": true,
          "internalType": "address",
          "name": "owner",
          "type": "address"
        },
        {
          "indexed": true,
          "internalType": "address",
          "name": "approved",
          "type": "address"
        },
        {
          "indexed": true,
          "internalType": "uint256",
          "name": "tokenId",
          "type": "uint256"
        }
      ],
      "name": "Approval",
      "type": "event"
    },
    {
      "anonymous": false,
      "inputs": [
        {
          "indexed": true,
          "internalType": "address",
          "name": "owner",
          "type": "address"
        },
        {
          "indexed": true,
          "internalType": "address",
          "name": "operator",
          "type": "address"
        },
        {
          "indexed": false,
          "internalType": "bool",
          "name": "approved",
          "type": "bool"
        }
      ],
      "name": "ApprovalForAll",
      "type": "event"
    },
    {
      "anonymous": false,
      "inputs": [
        {
          "indexed": false,
          "internalType": "address",
          "name": "owner",
          "type": "address"
        },
        {
          "indexed": false,
          "internalType": "uint256",
          "name": "kittyId",
          "type": "uint256"
        },
        {
          "indexed": false,
          "internalType": "uint256",
          "name": "genes",
          "type": "uint256"
        },
        {
          "indexed": false,
          "internalType": "uint256",
          "name": "mumId",
          "type": "uint256"
        },
        {
          "indexed": false,
          "internalType": "uint256",
          "name": "dadId",
          "type": "uint256"
        }
      ],
      "name": "Birth",
      "type": "event"
    },
    {
      "anonymous": false,
      "inputs": [
        {
          "indexed": true,
          "internalType": "address",
          "name": "from",
          "type": "address"
        },
        {
          "indexed": true,
          "internalType": "address",
          "name": "to",
          "type": "address"
        },
        {
          "indexed": true,
          "internalType": "uint256",
          "name": "tokenId",
          "type": "uint256"
        }
      ],
      "name": "Transfer",
      "type": "event"
    },
    {
      "inputs": [],
      "name": "LIMIT_GEN0",
      "outputs": [
        {
          "internalType": "uint256",
          "name": "",
          "type": "uint256"
        }
      ],
      "stateMutability": "view",
      "type": "function",
      "constant": true
    },
    {
      "inputs": [],
      "name": "gen0Counter",
      "outputs": [
        {
          "internalType": "uint256",
          "name": "",
          "type": "uint256"
        }
      ],
      "stateMutability": "view",
      "type": "function",
      "constant": true
    },
    {
      "inputs": [],
      "name": "name",
      "outputs": [
        {
          "internalType": "string",
          "name": "",
          "type": "string"
        }
      ],
      "stateMutability": "view",
      "type": "function",
      "constant": true
    },
    {
      "inputs": [],
      "name": "owner",
      "outputs": [
        {
          "internalType": "address",
          "name": "",
          "type": "address"
        }
      ],
      "stateMutability": "view",
      "type": "function",
      "constant": true
    },
    {
      "inputs": [],
      "name": "symbol",
      "outputs": [
        {
          "internalType": "string",
          "name": "",
          "type": "string"
        }
      ],
      "stateMutability": "view",
      "type": "function",
      "constant": true
    },
    {
      "inputs": [
        {
          "internalType": "uint256",
          "name": "",
          "type": "uint256"
        }
      ],
      "name": "tokenApprovedTo",
      "outputs": [
        {
          "internalType": "address",
          "name": "",
          "type": "address"
        }
      ],
      "stateMutability": "view",
      "type": "function",
      "constant": true
    },
    {
      "inputs": [
        {
          "internalType": "uint256",
          "name": "",
          "type": "uint256"
        }
      ],
      "name": "tokenOwner",
      "outputs": [
        {
          "internalType": "address",
          "name": "",
          "type": "address"
        }
      ],
      "stateMutability": "view",
      "type": "function",
      "constant": true
    },
    {
      "inputs": [
        {
          "internalType": "address",
          "name": "newOwner",
          "type": "address"
        }
      ],
      "name": "transferOwnership",
      "outputs": [],
      "stateMutability": "nonpayable",
      "type": "function"
    },
    {
      "inputs": [
        {
          "internalType": "bytes4",
          "name": "_interfaceId",
          "type": "bytes4"
        }
      ],
      "name": "supportsInterface",
      "outputs": [
        {
          "internalType": "bool",
          "name": "",
          "type": "bool"
        }
      ],
      "stateMutability": "pure",
      "type": "function",
      "constant": true
    },
    {
      "inputs": [
        {
          "internalType": "uint256",
          "name": "_dadId",
          "type": "uint256"
        },
        {
          "internalType": "uint256",
          "name": "_mumId",
          "type": "uint256"
        }
      ],
      "name": "breed",
      "outputs": [
        {
          "internalType": "uint256",
          "name": "",
          "type": "uint256"
        }
      ],
      "stateMutability": "nonpayable",
      "type": "function"
    },
    {
      "inputs": [
        {
          "internalType": "address",
          "name": "_approved",
          "type": "address"
        },
        {
          "internalType": "uint256",
          "name": "_tokenId",
          "type": "uint256"
        }
      ],
      "name": "approve",
      "outputs": [],
      "stateMutability": "nonpayable",
      "type": "function"
    },
    {
      "inputs": [
        {
          "internalType": "address",
          "name": "_operator",
          "type": "address"
        },
        {
          "internalType": "bool",
          "name": "_approved",
          "type": "bool"
        }
      ],
      "name": "setApprovalForAll",
      "outputs": [],
      "stateMutability": "nonpayable",
      "type": "function"
    },
    {
      "inputs": [
        {
          "internalType": "uint256",
          "name": "_tokenId",
          "type": "uint256"
        }
      ],
      "name": "getApproved",
      "outputs": [
        {
          "internalType": "address",
          "name": "",
          "type": "address"
        }
      ],
      "stateMutability": "view",
      "type": "function",
      "constant": true
    },
    {
      "inputs": [
        {
          "internalType": "address",
          "name": "_owner",
          "type": "address"
        },
        {
          "internalType": "address",
          "name": "_operator",
          "type": "address"
        }
      ],
      "name": "isApprovedForAll",
      "outputs": [
        {
          "internalType": "bool",
          "name": "",
          "type": "bool"
        }
      ],
      "stateMutability": "view",
      "type": "function",
      "constant": true
    },
    {
      "inputs": [
        {
          "internalType": "uint256",
          "name": "_genes",
          "type": "uint256"
        }
      ],
      "name": "createKittyGen0",
      "outputs": [],
      "stateMutability": "nonpayable",
      "type": "function"
    },
    {
      "inputs": [
        {
          "internalType": "uint256",
          "name": "_id",
          "type": "uint256"
        }
      ],
      "name": "getKitty",
      "outputs": [
        {
          "internalType": "uint256",
          "name": "genes",
          "type": "uint256"
        },
        {
          "internalType": "uint256",
          "name": "birthTime",
          "type": "uint256"
        },
        {
          "internalType": "uint256",
          "name": "mumId",
          "type": "uint256"
        },
        {
          "internalType": "uint256",
          "name": "dadId",
          "type": "uint256"
        },
        {
          "internalType": "uint256",
          "name": "generation",
          "type": "uint256"
        }
      ],
      "stateMutability": "view",
      "type": "function",
      "constant": true
    },
    {
      "inputs": [
        {
          "internalType": "address",
          "name": "_owner",
          "type": "address"
        }
      ],
      "name": "getKittyByOwner",
      "outputs": [
        {
          "internalType": "uint256[]",
          "name": "",
          "type": "uint256[]"
        }
      ],
      "stateMutability": "view",
      "type": "function",
      "constant": true
    },
    {
      "inputs": [
        {
          "internalType": "address",
          "name": "owner",
          "type": "address"
        }
      ],
      "name": "balanceOf",
      "outputs": [
        {
          "internalType": "uint256",
          "name": "",
          "type": "uint256"
        }
      ],
      "stateMutability": "view",
      "type": "function",
      "constant": true
    },
    {
      "inputs": [],
      "name": "totalSupply",
      "outputs": [
        {
          "internalType": "uint256",
          "name": "",
          "type": "uint256"
        }
      ],
      "stateMutability": "view",
      "type": "function",
      "constant": true
    },
    {
      "inputs": [
        {
          "internalType": "uint256",
          "name": "tokenId",
          "type": "uint256"
        }
      ],
      "name": "ownerOf",
      "outputs": [
        {
          "internalType": "address",
          "name": "",
          "type": "address"
        }
      ],
      "stateMutability": "view",
      "type": "function",
      "constant": true
    },
    {
      "inputs": [
        {
          "internalType": "address",
          "name": "to",
          "type": "address"
        },
        {
          "internalType": "uint256",
          "name": "tokenId",
          "type": "uint256"
        }
      ],
      "name": "transfer",
      "outputs": [],
      "stateMutability": "nonpayable",
      "type": "function"
    },
    {
      "inputs": [
        {
          "internalType": "address",
          "name": "_from",
          "type": "address"
        },
        {
          "internalType": "address",
          "name": "_to",
          "type": "address"
        },
        {
          "internalType": "uint256",
          "name": "_tokenId",
          "type": "uint256"
        }
      ],
      "name": "transferFrom",
      "outputs": [],
      "stateMutability": "nonpayable",
      "type": "function"
    },
    {
      "inputs": [
        {
          "internalType": "address",
          "name": "_from",
          "type": "address"
        },
        {
          "internalType": "address",
          "name": "_to",
          "type": "address"
        },
        {
          "internalType": "uint256",
          "name": "_tokenId",
          "type": "uint256"
        }
      ],
      "name": "safeTransferFrom",
      "outputs": [],
      "stateMutability": "nonpayable",
      "type": "function"
    },
    {
      "inputs": [
        {
          "internalType": "address",
          "name": "_from",
          "type": "address"
        },
        {
          "internalType": "address",
          "name": "_to",
          "type": "address"
        },
        {
          "internalType": "uint256",
          "name": "_tokenId",
          "type": "uint256"
        },
        {
          "internalType": "bytes",
          "name": "_data",
          "type": "bytes"
        }
      ],
      "name": "safeTransferFrom",
      "outputs": [],
      "stateMutability": "nonpayable",
      "type": "function"
    }
  ],
  "bytecode": "0x608060405234801561001057600080fd5b50336000806101000a81548173ffffffffffffffffffffffffffffffffffffffff021916908373ffffffffffffffffffffffffffffffffffffffff160217905550612328806100606000396000f3fe608060405234801561001057600080fd5b50600436106101585760003560e01c80638da5cb5b116100c3578063d5a776ca1161007c578063d5a776ca146103eb578063d9ecad7b14610407578063e985e9c514610437578063e98b7f4d14610467578063ef5e94aa1461049b578063f2fde38b146104b957610158565b80638da5cb5b1461032b57806395d89b411461034957806395e6c62f14610367578063a22cb46514610397578063a9059cbb146103b3578063b88d4fde146103cf57610158565b806323b872dd1161011557806323b872dd1461024557806342842e0e146102615780634823f07b1461027d5780636352211e146102ad57806370a08231146102dd578063880ffb0c1461030d57610158565b806301ffc9a71461015d57806306fdde031461018d578063081812fc146101ab578063095ea7b3146101db57806318160ddd146101f75780631caaa48714610215575b600080fd5b61017760048036038101906101729190611885565b6104d5565b60405161018491906118cd565b60405180910390f35b610195610575565b6040516101a29190611978565b60405180910390f35b6101c560048036038101906101c091906119d0565b6105ae565b6040516101d29190611a3e565b60405180910390f35b6101f560048036038101906101f09190611a85565b6105fe565b005b6101ff61067a565b60405161020c9190611ad4565b60405180910390f35b61022f600480360381019061022a91906119d0565b610687565b60405161023c9190611a3e565b60405180910390f35b61025f600480360381019061025a9190611aef565b6106ba565b005b61027b60048036038101906102769190611aef565b61084a565b005b610297600480360381019061029291906119d0565b61086a565b6040516102a49190611a3e565b60405180910390f35b6102c760048036038101906102c291906119d0565b61089d565b6040516102d49190611a3e565b60405180910390f35b6102f760048036038101906102f29190611b42565b6108da565b6040516103049190611ad4565b60405180910390f35b610315610923565b6040516103229190611ad4565b60405180910390f35b610333610928565b6040516103409190611a3e565b60405180910390f35b61035161094c565b60405161035e9190611978565b60405180910390f35b610381600480360381019061037c9190611b42565b610985565b60405161038e9190611c2d565b60405180910390f35b6103b160048036038101906103ac9190611c7b565b610ad7565b005b6103cd60048036038101906103c89190611a85565b610c0c565b005b6103e960048036038101906103e49190611df0565b610ca1565b005b610405600480360381019061040091906119d0565b610cc8565b005b610421600480360381019061041c9190611e73565b610d5a565b60405161042e9190611ad4565b60405180910390f35b610451600480360381019061044c9190611eb3565b610ea8565b60405161045e91906118cd565b60405180910390f35b610481600480360381019061047c91906119d0565b610f3c565b604051610492959493929190611ef3565b60405180910390f35b6104a3611063565b6040516104b09190611ad4565b60405180910390f35b6104d360048036038101906104ce9190611b42565b611069565b005b60006380ac58cd60e01b7bffffffffffffffffffffffffffffffffffffffffffffffffffffffff1916827bffffffffffffffffffffffffffffffffffffffffffffffffffffffff1916148061056e57506301ffc9a760e01b7bffffffffffffffffffffffffffffffffffffffffffffffffffffffff1916827bffffffffffffffffffffffffffffffffffffffffffffffffffffffff1916145b9050919050565b6040518060400160405280600881526020017f5a4b69747469657300000000000000000000000000000000000000000000000081525081565b60008160018054905081106105c257600080fd5b6004600084815260200190815260200160002060009054906101000a900473ffffffffffffffffffffffffffffffffffffffff16915050919050565b6106083382611139565b61061157600080fd5b61061b82826111a5565b808273ffffffffffffffffffffffffffffffffffffffff163373ffffffffffffffffffffffffffffffffffffffff167f8c5be1e5ebec7d5bd14f71427d1e84f3dd0314c0f7b2291e5b200ac8c7c3b92560405160405180910390a45050565b6000600180549050905090565b60036020528060005260406000206000915054906101000a900473ffffffffffffffffffffffffffffffffffffffff1681565b81600073ffffffffffffffffffffffffffffffffffffffff168173ffffffffffffffffffffffffffffffffffffffff16036106f457600080fd5b60008054906101000a900473ffffffffffffffffffffffffffffffffffffffff1673ffffffffffffffffffffffffffffffffffffffff163373ffffffffffffffffffffffffffffffffffffffff161461074c57600080fd5b81600180549050811061075e57600080fd5b3373ffffffffffffffffffffffffffffffffffffffff168573ffffffffffffffffffffffffffffffffffffffff16148061079e575061079d83866111fb565b5b8061082f5750600560008673ffffffffffffffffffffffffffffffffffffffff1673ffffffffffffffffffffffffffffffffffffffff16815260200190815260200160002060003373ffffffffffffffffffffffffffffffffffffffff1673ffffffffffffffffffffffffffffffffffffffff16815260200190815260200160002060009054906101000a900460ff165b61083857600080fd5b610843338585611267565b5050505050565b61086583838360405180602001604052806000815250610ca1565b505050565b60046020528060005260406000206000915054906101000a900473ffffffffffffffffffffffffffffffffffffffff1681565b60006003600083815260200190815260200160002060009054906101000a900473ffffffffffffffffffffffffffffffffffffffff169050919050565b6000600260008373ffffffffffffffffffffffffffffffffffffffff1673ffffffffffffffffffffffffffffffffffffffff168152602001908152602001600020549050919050565b600a81565b60008054906101000a900473ffffffffffffffffffffffffffffffffffffffff1681565b6040518060400160405280600281526020017f5a4b00000000000000000000000000000000000000000000000000000000000081525081565b60606000600260008473ffffffffffffffffffffffffffffffffffffffff1673ffffffffffffffffffffffffffffffffffffffff1681526020019081526020016000205467ffffffffffffffff8111156109e2576109e1611cc5565b5b604051908082528060200260200182016040528015610a105781602001602082028036833780820191505090505b5090506000805b600180549050811015610acc578473ffffffffffffffffffffffffffffffffffffffff166003600083815260200190815260200160002060009054906101000a900473ffffffffffffffffffffffffffffffffffffffff1673ffffffffffffffffffffffffffffffffffffffff1603610ab95780838381518110610a9e57610a9d611f46565b5b6020026020010181815250508180610ab590611fa4565b9250505b8080610ac490611fa4565b915050610a17565b508192505050919050565b8173ffffffffffffffffffffffffffffffffffffffff163373ffffffffffffffffffffffffffffffffffffffff1603610b0f57600080fd5b80600560003373ffffffffffffffffffffffffffffffffffffffff1673ffffffffffffffffffffffffffffffffffffffff16815260200190815260200160002060008473ffffffffffffffffffffffffffffffffffffffff1673ffffffffffffffffffffffffffffffffffffffff16815260200190815260200160002060006101000a81548160ff0219169083151502179055508173ffffffffffffffffffffffffffffffffffffffff163373ffffffffffffffffffffffffffffffffffffffff167f17307eab39ab6107e8899845ad3d59bd9653f200f220920489ca2b5937696c3183604051610c0091906118cd565b60405180910390a35050565b81600073ffffffffffffffffffffffffffffffffffffffff168173ffffffffffffffffffffffffffffffffffffffff1603610c4657600080fd5b3073ffffffffffffffffffffffffffffffffffffffff168373ffffffffffffffffffffffffffffffffffffffff1603610c7e57600080fd5b610c883383611139565b610c9157600080fd5b610c9c338484611267565b505050565b610cad3385858561142e565b610cb657600080fd5b610cc2848484846114ec565b50505050565b60008054906101000a900473ffffffffffffffffffffffffffffffffffffffff1673ffffffffffffffffffffffffffffffffffffffff163373ffffffffffffffffffffffffffffffffffffffff1614610d2057600080fd5b600a60065410610d2f57600080fd5b610d3e81600080600033611512565b5060066000815480929190610d5290611fa4565b919050555050565b6000610d663384611139565b610da5576040517f08c379a0000000000000000000000000000000000000000000000000000000008152600401610d9c90612038565b60405180910390fd5b610daf3383611139565b610dee576040517f08c379a0000000000000000000000000000000000000000000000000000000008152600401610de590612038565b60405180910390fd5b600080610dfa85610f3c565b94505050509150600080610e0d86610f3c565b945050505091506000610e20858461169e565b9050600082851015610e4f57600183610e399190612058565b9050600281610e4891906120bb565b9050610e8b565b82851115610e7a57600185610e649190612058565b9050600281610e7391906120bb565b9050610e8a565b600183610e879190612058565b90505b5b610e98888a838533611512565b5081965050505050505092915050565b6000600560008473ffffffffffffffffffffffffffffffffffffffff1673ffffffffffffffffffffffffffffffffffffffff16815260200190815260200160002060008373ffffffffffffffffffffffffffffffffffffffff1673ffffffffffffffffffffffffffffffffffffffff16815260200190815260200160002060009054906101000a900460ff16905092915050565b60008060008060008060018781548110610f5957610f58611f46565b5b90600052602060002090600202016040518060a0016040529081600082015481526020016001820160009054906101000a900467ffffffffffffffff1667ffffffffffffffff1667ffffffffffffffff1681526020016001820160089054906101000a900463ffffffff1663ffffffff1663ffffffff16815260200160018201600c9054906101000a900463ffffffff1663ffffffff1663ffffffff1681526020016001820160109054906101000a900461ffff1661ffff1661ffff1681525050905080600001519550806020015167ffffffffffffffff169450806040015163ffffffff169350806060015163ffffffff169250806080015161ffff1691505091939590929450565b60065481565b60008054906101000a900473ffffffffffffffffffffffffffffffffffffffff1673ffffffffffffffffffffffffffffffffffffffff163373ffffffffffffffffffffffffffffffffffffffff16146110c157600080fd5b600073ffffffffffffffffffffffffffffffffffffffff168173ffffffffffffffffffffffffffffffffffffffff161461113657806000806101000a81548173ffffffffffffffffffffffffffffffffffffffff021916908373ffffffffffffffffffffffffffffffffffffffff1602179055505b50565b60008273ffffffffffffffffffffffffffffffffffffffff166003600084815260200190815260200160002060009054906101000a900473ffffffffffffffffffffffffffffffffffffffff1673ffffffffffffffffffffffffffffffffffffffff1614905092915050565b816004600083815260200190815260200160002060006101000a81548173ffffffffffffffffffffffffffffffffffffffff021916908373ffffffffffffffffffffffffffffffffffffffff1602179055505050565b60008173ffffffffffffffffffffffffffffffffffffffff166004600085815260200190815260200160002060009054906101000a900473ffffffffffffffffffffffffffffffffffffffff1673ffffffffffffffffffffffffffffffffffffffff1614905092915050565b600260008373ffffffffffffffffffffffffffffffffffffffff1673ffffffffffffffffffffffffffffffffffffffff16815260200190815260200160002060008154809291906112b790611fa4565b9190505550816003600083815260200190815260200160002060006101000a81548173ffffffffffffffffffffffffffffffffffffffff021916908373ffffffffffffffffffffffffffffffffffffffff160217905550600073ffffffffffffffffffffffffffffffffffffffff168373ffffffffffffffffffffffffffffffffffffffff16146113ce57600260008473ffffffffffffffffffffffffffffffffffffffff1673ffffffffffffffffffffffffffffffffffffffff1681526020019081526020016000206000815480929190611392906120ec565b91905055506004600082815260200190815260200160002060006101000a81549073ffffffffffffffffffffffffffffffffffffffff02191690555b808273ffffffffffffffffffffffffffffffffffffffff168473ffffffffffffffffffffffffffffffffffffffff167fddf252ad1be2c89b69c2b068fc378daa952ba7f163c4a11628f55a4df523b3ef60405160405180910390a4505050565b600082600073ffffffffffffffffffffffffffffffffffffffff168173ffffffffffffffffffffffffffffffffffffffff160361146a57600080fd5b82600180549050811061147c57600080fd5b6114868685611139565b61148f57600080fd5b8573ffffffffffffffffffffffffffffffffffffffff168773ffffffffffffffffffffffffffffffffffffffff1614806114cf57506114ce84876111fb565b5b806114e057506114df8688610ea8565b5b92505050949350505050565b6114f7848484611267565b611503848484846116f5565b61150c57600080fd5b50505050565b6000806040518060a001604052808881526020014267ffffffffffffffff1681526020018763ffffffff1681526020018663ffffffff1681526020018561ffff16815250905060018190806001815401808255809150506001900390600052602060002090600202016000909190919091506000820151816000015560208201518160010160006101000a81548167ffffffffffffffff021916908367ffffffffffffffff16021790555060408201518160010160086101000a81548163ffffffff021916908363ffffffff160217905550606082015181600101600c6101000a81548163ffffffff021916908363ffffffff16021790555060808201518160010160106101000a81548161ffff021916908361ffff16021790555050506000600180805490506116439190612115565b905061165160008583611267565b7f0a5311bd2a6608f08a180df2ee7c5946819a649b204b554bb8e39825b2c50ad584828a8a8a604051611688959493929190612149565b60405180910390a1809250505095945050505050565b6000806305f5e100846116b191906120bb565b905060006305f5e100846116c5919061219c565b905060006305f5e100836116d991906121cd565b905081816116e79190612058565b905080935050505092915050565b600061170084611800565b61170d57600190506117f8565b60008473ffffffffffffffffffffffffffffffffffffffff1663150b7a02338887876040518563ffffffff1660e01b815260040161174e9493929190612264565b6020604051808303816000875af115801561176d573d6000803e3d6000fd5b505050506040513d601f19601f8201168201806040525081019061179191906122c5565b90507f150b7a023d4804d13e8c85fb27262cb750cf6ba9f9dd3bb30d90f482ceeb4b1f7bffffffffffffffffffffffffffffffffffffffffffffffffffffffff1916817bffffffffffffffffffffffffffffffffffffffffffffffffffffffff1916149150505b949350505050565b600080823b905060008163ffffffff1611915050919050565b6000604051905090565b600080fd5b600080fd5b60007fffffffff0000000000000000000000000000000000000000000000000000000082169050919050565b6118628161182d565b811461186d57600080fd5b50565b60008135905061187f81611859565b92915050565b60006020828403121561189b5761189a611823565b5b60006118a984828501611870565b91505092915050565b60008115159050919050565b6118c7816118b2565b82525050565b60006020820190506118e260008301846118be565b92915050565b600081519050919050565b600082825260208201905092915050565b60005b83811015611922578082015181840152602081019050611907565b60008484015250505050565b6000601f19601f8301169050919050565b600061194a826118e8565b61195481856118f3565b9350611964818560208601611904565b61196d8161192e565b840191505092915050565b60006020820190508181036000830152611992818461193f565b905092915050565b6000819050919050565b6119ad8161199a565b81146119b857600080fd5b50565b6000813590506119ca816119a4565b92915050565b6000602082840312156119e6576119e5611823565b5b60006119f4848285016119bb565b91505092915050565b600073ffffffffffffffffffffffffffffffffffffffff82169050919050565b6000611a28826119fd565b9050919050565b611a3881611a1d565b82525050565b6000602082019050611a536000830184611a2f565b92915050565b611a6281611a1d565b8114611a6d57600080fd5b50565b600081359050611a7f81611a59565b92915050565b60008060408385031215611a9c57611a9b611823565b5b6000611aaa85828601611a70565b9250506020611abb858286016119bb565b9150509250929050565b611ace8161199a565b82525050565b6000602082019050611ae96000830184611ac5565b92915050565b600080600060608486031215611b0857611b07611823565b5b6000611b1686828701611a70565b9350506020611b2786828701611a70565b9250506040611b38868287016119bb565b9150509250925092565b600060208284031215611b5857611b57611823565b5b6000611b6684828501611a70565b91505092915050565b600081519050919050565b600082825260208201905092915050565b6000819050602082019050919050565b611ba48161199a565b82525050565b6000611bb68383611b9b565b60208301905092915050565b6000602082019050919050565b6000611bda82611b6f565b611be48185611b7a565b9350611bef83611b8b565b8060005b83811015611c20578151611c078882611baa565b9750611c1283611bc2565b925050600181019050611bf3565b5085935050505092915050565b60006020820190508181036000830152611c478184611bcf565b905092915050565b611c58816118b2565b8114611c6357600080fd5b50565b600081359050611c7581611c4f565b92915050565b60008060408385031215611c9257611c91611823565b5b6000611ca085828601611a70565b9250506020611cb185828601611c66565b9150509250929050565b600080fd5b600080fd5b7f4e487b7100000000000000000000000000000000000000000000000000000000600052604160045260246000fd5b611cfd8261192e565b810181811067ffffffffffffffff82111715611d1c57611d1b611cc5565b5b80604052505050565b6000611d2f611819565b9050611d3b8282611cf4565b919050565b600067ffffffffffffffff821115611d5b57611d5a611cc5565b5b611d648261192e565b9050602081019050919050565b82818337600083830152505050565b6000611d93611d8e84611d40565b611d25565b905082815260208101848484011115611daf57611dae611cc0565b5b611dba848285611d71565b509392505050565b600082601f830112611dd757611dd6611cbb565b5b8135611de7848260208601611d80565b91505092915050565b60008060008060808587031215611e0a57611e09611823565b5b6000611e1887828801611a70565b9450506020611e2987828801611a70565b9350506040611e3a878288016119bb565b925050606085013567ffffffffffffffff811115611e5b57611e5a611828565b5b611e6787828801611dc2565b91505092959194509250565b60008060408385031215611e8a57611e89611823565b5b6000611e98858286016119bb565b9250506020611ea9858286016119bb565b9150509250929050565b60008060408385031215611eca57611ec9611823565b5b6000611ed885828601611a70565b9250506020611ee985828601611a70565b9150509250929050565b600060a082019050611f086000830188611ac5565b611f156020830187611ac5565b611f226040830186611ac5565b611f2f6060830185611ac5565b611f3c6080830184611ac5565b9695505050505050565b7f4e487b7100000000000000000000000000000000000000000000000000000000600052603260045260246000fd5b7f4e487b7100000000000000000000000000000000000000000000000000000000600052601160045260246000fd5b6000611faf8261199a565b91507fffffffffffffffffffffffffffffffffffffffffffffffffffffffffffffffff8203611fe157611fe0611f75565b5b600182019050919050565b7f546865207573657220646f65736e2774206f776e2074686520746f6b656e0000600082015250565b6000612022601e836118f3565b915061202d82611fec565b602082019050919050565b6000602082019050818103600083015261205181612015565b9050919050565b60006120638261199a565b915061206e8361199a565b925082820190508082111561208657612085611f75565b5b92915050565b7f4e487b7100000000000000000000000000000000000000000000000000000000600052601260045260246000fd5b60006120c68261199a565b91506120d18361199a565b9250826120e1576120e061208c565b5b828204905092915050565b60006120f78261199a565b91506000820361210a57612109611f75565b5b600182039050919050565b60006121208261199a565b915061212b8361199a565b925082820390508181111561214357612142611f75565b5b92915050565b600060a08201905061215e6000830188611a2f565b61216b6020830187611ac5565b6121786040830186611ac5565b6121856060830185611ac5565b6121926080830184611ac5565b9695505050505050565b60006121a78261199a565b91506121b28361199a565b9250826121c2576121c161208c565b5b828206905092915050565b60006121d88261199a565b91506121e38361199a565b92508282026121f18161199a565b9150828204841483151761220857612207611f75565b5b5092915050565b600081519050919050565b600082825260208201905092915050565b60006122368261220f565b612240818561221a565b9350612250818560208601611904565b6122598161192e565b840191505092915050565b60006080820190506122796000830187611a2f565b6122866020830186611a2f565b6122936040830185611ac5565b81810360608301526122a5818461222b565b905095945050505050565b6000815190506122bf81611859565b92915050565b6000602082840312156122db576122da611823565b5b60006122e9848285016122b0565b9150509291505056fea2646970667358221220b898d741f90dd2c070b4cd8ad866bdaabb502038f6b86d5598a1d6600c32485964736f6c63430008110033",
  "immutableReferences": {},
  "source": "// SPDX-License-Identifier: MIT\r\n\r\npragma solidity 0.8.17;\r\nimport \"./IERC721.sol\";\r\nimport \"./IERC721Receiver.sol\";\r\nimport \"./Ownable.sol\";\r\n\r\ncontract KittyContract is IERC721, Ownable{\r\n\r\n    string public constant name = \"ZKitties\";\r\n    string public constant symbol = \"ZK\";\r\n    uint public constant LIMIT_GEN0 = 10;\r\n    bytes4 internal constant ERC721_RECEIVED = bytes4(keccak256(\"onERC721Received(address,address,uint256,bytes)\"));\r\n\r\n    /*\r\n     *     bytes4(keccak256('balanceOf(address)')) == 0x70a08231\r\n     *     bytes4(keccak256('ownerOf(uint256)')) == 0x6352211e\r\n     *     bytes4(keccak256('approve(address,uint256)')) == 0x095ea7b3\r\n     *     bytes4(keccak256('getApproved(uint256)')) == 0x081812fc\r\n     *     bytes4(keccak256('setApprovalForAll(address,bool)')) == 0xa22cb465\r\n     *     bytes4(keccak256('isApprovedForAll(address,address)')) == 0xe985e9c5\r\n     *     bytes4(keccak256('transferFrom(address,address,uint256)')) == 0x23b872dd\r\n     *     bytes4(keccak256('safeTransferFrom(address,address,uint256)')) == 0x42842e0e\r\n     *     bytes4(keccak256('safeTransferFrom(address,address,uint256,bytes)')) == 0xb88d4fde\r\n     *\r\n     *     => 0x70a08231 ^ 0x6352211e ^ 0x095ea7b3 ^ 0x081812fc ^\r\n     *        0xa22cb465 ^ 0xe985e9c ^ 0x23b872dd ^ 0x42842e0e ^ 0xb88d4fde == 0x80ac58cd\r\n     */\r\n    bytes4 private constant _INTERFACE_ID_ERC721 = 0x80ac58cd;\r\n\r\n    /*\r\n     *     bytes4(keccak256('supportsInterface(bytes4)'));\r\n     */\r\n    bytes4 private constant _INTERFACE_ID_ERC165 = 0x01ffc9a7;\r\n\r\n    struct Kitty{\r\n        uint256 genes;\r\n        uint64 birthTime;\r\n        uint32 mumId;\r\n        uint32 dadId;\r\n        uint16 generation;\r\n    }\r\n\r\n    Kitty[] kitties;\r\n\r\n    mapping (address => uint) balances;\r\n    mapping (uint => address) public tokenOwner;\r\n    mapping (uint => address) public tokenApprovedTo;\r\n    mapping (address => mapping (address => bool)) private operatorApprovals;\r\n\r\n    uint256 public gen0Counter;\r\n\r\n    event Birth(address owner, uint kittyId, uint genes, uint mumId, uint dadId);\r\n\r\n    function supportsInterface(bytes4 _interfaceId) external pure returns (bool){\r\n        return ( _interfaceId == _INTERFACE_ID_ERC721 || _interfaceId == _INTERFACE_ID_ERC165);\r\n    }\r\n\r\n    function breed(uint256 _dadId, uint256 _mumId) public returns (uint256){\r\n        require(_owns(msg.sender, _dadId), \"The user doesn't own the token\");\r\n        require(_owns(msg.sender, _mumId), \"The user doesn't own the token\");\r\n\r\n        ( uint256 dadDna,,,,uint256 DadGeneration ) = getKitty(_dadId);\r\n\r\n        ( uint256 mumDna,,,,uint256 MumGeneration ) = getKitty(_mumId);\r\n        \r\n        uint256 newDna = _mixDna(dadDna, mumDna);\r\n\r\n        uint256 kidGen = 0;\r\n        if (DadGeneration < MumGeneration){\r\n            kidGen = MumGeneration + 1;\r\n            kidGen /= 2;\r\n        } else if (DadGeneration > MumGeneration){\r\n            kidGen = DadGeneration + 1;\r\n            kidGen /= 2;\r\n        } else{\r\n            kidGen = MumGeneration + 1;\r\n        }\r\n\r\n        _createKitty(_mumId, _dadId, kidGen, newDna, msg.sender);\r\n\r\n        return newDna;\r\n    }\r\n    \r\n\r\n    function approve(address _approved, uint256 _tokenId) external {\r\n        require(_owns(msg.sender, _tokenId));\r\n        _approve(_approved, _tokenId);\r\n\r\n        emit Approval(msg.sender, _approved,_tokenId);\r\n    }\r\n\r\n    function setApprovalForAll(address _operator, bool _approved) external{\r\n        require(msg.sender != _operator);\r\n        operatorApprovals[msg.sender][_operator] = _approved;\r\n        emit ApprovalForAll(msg.sender, _operator, _approved);\r\n    }\r\n\r\n    function getApproved(uint256 _tokenId) external view isValidToken(_tokenId) returns (address){\r\n        return tokenApprovedTo[_tokenId];\r\n    }\r\n\r\n    function isApprovedForAll(address _owner, address _operator) public view returns (bool){\r\n        return operatorApprovals[_owner][_operator];\r\n    }\r\n\r\n\r\n    function createKittyGen0(uint _genes) public onlyOwner{\r\n        require(gen0Counter < LIMIT_GEN0);\r\n        _createKitty(_genes, 0, 0, 0, msg.sender);\r\n        gen0Counter++;\r\n    }\r\n\r\n    function getKitty(uint _id) public view returns(\r\n        uint256 genes,\r\n        uint256 birthTime,\r\n        uint256 mumId,\r\n        uint256 dadId,\r\n        uint256 generation\r\n    ){\r\n            Kitty memory kitty = kitties[_id];\r\n            genes = uint256(kitty.genes);\r\n            birthTime = uint256(kitty.birthTime);\r\n            mumId = uint256(kitty.mumId);\r\n            dadId = uint256(kitty.dadId);\r\n            generation = uint256(kitty.generation);\r\n    }\r\n\r\n    function getKittyByOwner(address _owner) external view returns(uint[] memory) {\r\n        uint[] memory result = new uint[](balances[_owner]);\r\n        uint counter = 0;\r\n        for (uint i = 0; i < kitties.length; i++) {\r\n            if (tokenOwner[i] == _owner) {\r\n                result[counter] = i;\r\n                counter++;\r\n            }\r\n        }\r\n        return result;\r\n    }\r\n\r\n    function balanceOf(address owner) external view returns (uint256){\r\n        return balances[owner];\r\n    }\r\n\r\n    function totalSupply() external view returns (uint256){\r\n        return kitties.length;\r\n    }\r\n\r\n    function ownerOf(uint256 tokenId) external view returns (address){\r\n        return tokenOwner[tokenId];\r\n    }\r\n\r\n    function transfer(address to, uint256 tokenId) external isValidAddress(to){\r\n        require(to != address(this));\r\n        require(_owns(msg.sender, tokenId));\r\n        _transfer(msg.sender, to, tokenId);\r\n    }\r\n\r\n    function transferFrom(address _from, address _to, uint256 _tokenId) external isValidAddress(_to) onlyOwner isValidToken(_tokenId){\r\n        require(_from == msg.sender || _approvedFor(_tokenId,_from) || operatorApprovals[_from][msg.sender]);\r\n        _transfer(msg.sender, _to, _tokenId);\r\n    }\r\n\r\n    modifier isValidAddress(address _address){\r\n        require(_address != address(0));\r\n        _;\r\n    }\r\n\r\n    modifier isValidToken(uint _tokenId){\r\n        require(_tokenId < kitties.length);\r\n        _;\r\n    }\r\n\r\n    function _createKitty(\r\n        uint256 _genes,\r\n        uint256 _mumId,\r\n        uint256 _dadId,\r\n        uint256 _generation,\r\n        address _owner\r\n    ) internal returns(uint256){\r\n        Kitty memory kitty = Kitty(\r\n            _genes,\r\n            uint64(block.timestamp),\r\n            uint32(_mumId),\r\n            uint32(_dadId),\r\n            uint16(_generation)\r\n        );\r\n        kitties.push(kitty);\r\n        uint kittyId = kitties.length - 1;\r\n        _transfer(address(0), _owner, kittyId);\r\n        emit Birth(_owner, kittyId, _genes, _mumId, _dadId);\r\n        return kittyId;\r\n    }\r\n\r\n   function safeTransferFrom(address _from, address _to, uint256 _tokenId) public {\r\n        safeTransferFrom(_from, _to, _tokenId, \"\");\r\n    }\r\n\r\n    function safeTransferFrom(address _from, address _to, uint256 _tokenId, bytes memory _data) public {\r\n        require( _isApprovedOrOwner(msg.sender, _from, _to, _tokenId) );\r\n        _safeTransfer(_from, _to, _tokenId, _data);\r\n    }\r\n\r\n    function _safeTransfer(address _from, address _to, uint256 _tokenId, bytes memory _data) internal{\r\n        _transfer(_from, _to, _tokenId);\r\n        require( _checkERC721Support(_from, _to, _tokenId, _data) );\r\n    }\r\n\r\n    function _transfer(address _from, address _to, uint256 _tokenId) internal{\r\n        balances[_to]++;\r\n        tokenOwner[_tokenId] = _to;\r\n        if(_from != address(0)){\r\n            balances[_from]--;\r\n            delete tokenApprovedTo[_tokenId];\r\n        }\r\n        emit Transfer(_from, _to, _tokenId);\r\n    }\r\n\r\n    function _owns(address _owner, uint256 _tokenId) internal view returns (bool) {\r\n        return tokenOwner[_tokenId] == _owner;\r\n    }\r\n\r\n    function _approve(address _approved, uint256 _tokenId) internal {\r\n        tokenApprovedTo[_tokenId] = _approved;\r\n    }\r\n\r\n    function _approvedFor(uint _tokenId, address _approvedTo) internal view returns(bool){\r\n        return tokenApprovedTo[_tokenId] == _approvedTo;\r\n    }\r\n\r\n    function _checkERC721Support(address _from, address _to, uint _tokenId, bytes memory data) internal returns (bool){\r\n        if(!_isContract(_to)){\r\n            return true;\r\n        }\r\n\r\n        bytes4 returnData = IERC721Receiver(_to).onERC721Received(msg.sender, _from, _tokenId, data);\r\n        return returnData == ERC721_RECEIVED;\r\n    }\r\n\r\n    function _isContract(address _to) internal view returns (bool){\r\n        uint32 size;\r\n        assembly{\r\n            size := extcodesize(_to)\r\n        }\r\n        return size > 0;\r\n    }\r\n\r\n    function _isApprovedOrOwner(address _spender, address _from, address _to, uint256 _tokenId) internal view isValidAddress(_to) isValidToken(_tokenId) returns (bool) {\r\n        require(_owns(_from, _tokenId)); \r\n        \r\n        return (_spender == _from || _approvedFor(_tokenId, _from) || isApprovedForAll(_from, _spender));\r\n    }\r\n\r\n    function _mixDna(uint256 _dadDna, uint256 _mumDna) internal pure returns (uint256){\r\n        //dadDna: 11 22 33 44 55 66 77 88 \r\n        //mumDna: 88 77 66 55 44 33 22 11\r\n\r\n        uint256 firstHalf = _dadDna / 100000000; //11223344\r\n        uint256 secondHalf = _mumDna % 100000000; //88776655\r\n        \r\n        uint256 newDna = firstHalf * 100000000;\r\n        newDna = newDna + secondHalf; // 1122334488776655\r\n        return newDna;\r\n\r\n        //11 22 33 44 88 77 66 55\r\n\r\n        //10 + 20\r\n        //10 * 100 = 1000\r\n        //1000 + 20 = 1020\r\n    \r\n    }\r\n}\r\n\r\n\r\n\r\n",
  "sourcePath": "C:\\Users\\Zayna\\Desktop\\cryptokitties-clone\\contracts\\Kitty.sol",
  "compiler": {
    "name": "solc",
    "version": "0.8.17+commit.8df45f5f.Emscripten.clang"
  },
  "schemaVersion": "3.4.3",
  "updatedAt": "2022-09-26T00:05:45.198Z",
  "networkType": "ethereum",
  "devdoc": {
    "kind": "dev",
    "methods": {
      "approve(address,uint256)": {
        "details": "The zero address indicates there is no approved address.  Throws unless `msg.sender` is the current NFT owner, or an authorized  operator of the current owner.",
        "params": {
          "_approved": "The new approved NFT controller",
          "_tokenId": "The NFT to approve"
        }
      },
      "balanceOf(address)": {
        "details": "Returns the number of tokens in ``owner``'s account."
      },
      "getApproved(uint256)": {
        "details": "Throws if `_tokenId` is not a valid NFT.",
        "params": {
          "_tokenId": "The NFT to find the approved address for"
        },
        "returns": {
          "_0": "The approved address for this NFT, or the zero address if there is none"
        }
      },
      "isApprovedForAll(address,address)": {
        "params": {
          "_operator": "The address that acts on behalf of the owner",
          "_owner": "The address that owns the NFTs"
        },
        "returns": {
          "_0": "True if `_operator` is an approved operator for `_owner`, false otherwise"
        }
      },
      "ownerOf(uint256)": {
        "details": "Returns the owner of the `tokenId` token. Requirements: - `tokenId` must exist."
      },
      "safeTransferFrom(address,address,uint256)": {
        "details": "This works identically to the other function with an extra data parameter,  except this function just sets data to \"\".",
        "params": {
          "_from": "The current owner of the NFT",
          "_to": "The new owner",
          "_tokenId": "The NFT to transfer"
        }
      },
      "setApprovalForAll(address,bool)": {
        "details": "Emits the ApprovalForAll event. The contract MUST allow  multiple operators per owner.",
        "params": {
          "_approved": "True if the operator is approved, false to revoke approval",
          "_operator": "Address to add to the set of authorized operators"
        }
      },
      "transferFrom(address,address,uint256)": {
        "details": "Throws unless `msg.sender` is the current owner, an authorized  operator, or the approved address for this NFT. Throws if `_from` is  not the current owner. Throws if `_to` is the zero address. Throws if  `_tokenId` is not a valid NFT.",
        "params": {
          "_from": "The current owner of the NFT",
          "_to": "The new owner",
          "_tokenId": "The NFT to transfer"
        }
      },
      "transferOwnership(address)": {
        "details": "Allows the current owner to transfer control of the contract to a newOwner.",
        "params": {
          "newOwner": "The address to transfer ownership to."
        }
      }
    },
    "version": 1
  },
  "userdoc": {
    "kind": "user",
    "methods": {
      "approve(address,uint256)": {
        "notice": "Change or reaffirm the approved address for an NFT"
      },
      "getApproved(uint256)": {
        "notice": "Get the approved address for a single NFT"
      },
      "isApprovedForAll(address,address)": {
        "notice": "Query if an address is an authorized operator for another address"
      },
      "safeTransferFrom(address,address,uint256)": {
        "notice": "Transfers the ownership of an NFT from one address to another address"
      },
      "setApprovalForAll(address,bool)": {
        "notice": "Enable or disable approval for a third party (\"operator\") to manage  all of `msg.sender`'s assets"
      },
      "transferFrom(address,address,uint256)": {
        "notice": "Transfer ownership of an NFT -- THE CALLER IS RESPONSIBLE  TO CONFIRM THAT `_to` IS CAPABLE OF RECEIVING NFTS OR ELSE  THEY MAY BE PERMANENTLY LOST"
      }
    },
    "version": 1
  }
}