{
  "contractName": "Kitty",
  "abi": [
    {
      "anonymous": false,
      "inputs": [
        {
          "indexed": true,
          "internalType": "address",
          "name": "owner",
          "type": "address"
        },
        {
          "indexed": true,
          "internalType": "address",
          "name": "approved",
          "type": "address"
        },
        {
          "indexed": true,
          "internalType": "uint256",
          "name": "tokenId",
          "type": "uint256"
        }
      ],
      "name": "Approval",
      "type": "event"
    },
    {
      "anonymous": false,
      "inputs": [
        {
          "indexed": true,
          "internalType": "address",
          "name": "from",
          "type": "address"
        },
        {
          "indexed": true,
          "internalType": "address",
          "name": "to",
          "type": "address"
        },
        {
          "indexed": true,
          "internalType": "uint256",
          "name": "tokenId",
          "type": "uint256"
        }
      ],
      "name": "Transfer",
      "type": "event"
    },
    {
      "inputs": [
        {
          "internalType": "address",
          "name": "",
          "type": "address"
        }
      ],
      "name": "balances",
      "outputs": [
        {
          "internalType": "uint256",
          "name": "",
          "type": "uint256"
        }
      ],
      "stateMutability": "view",
      "type": "function"
    },
    {
      "inputs": [],
      "name": "name",
      "outputs": [
        {
          "internalType": "string",
          "name": "",
          "type": "string"
        }
      ],
      "stateMutability": "view",
      "type": "function"
    },
    {
      "inputs": [],
      "name": "symbol",
      "outputs": [
        {
          "internalType": "string",
          "name": "",
          "type": "string"
        }
      ],
      "stateMutability": "view",
      "type": "function"
    },
    {
      "inputs": [
        {
          "internalType": "uint256",
          "name": "",
          "type": "uint256"
        }
      ],
      "name": "tokenOwner",
      "outputs": [
        {
          "internalType": "address",
          "name": "",
          "type": "address"
        }
      ],
      "stateMutability": "view",
      "type": "function"
    },
    {
      "inputs": [
        {
          "internalType": "address",
          "name": "owner",
          "type": "address"
        }
      ],
      "name": "balanceOf",
      "outputs": [
        {
          "internalType": "uint256",
          "name": "",
          "type": "uint256"
        }
      ],
      "stateMutability": "view",
      "type": "function"
    },
    {
      "inputs": [],
      "name": "totalSupply",
      "outputs": [
        {
          "internalType": "uint256",
          "name": "",
          "type": "uint256"
        }
      ],
      "stateMutability": "view",
      "type": "function"
    },
    {
      "inputs": [
        {
          "internalType": "uint256",
          "name": "tokenId",
          "type": "uint256"
        }
      ],
      "name": "ownerOf",
      "outputs": [
        {
          "internalType": "address",
          "name": "",
          "type": "address"
        }
      ],
      "stateMutability": "view",
      "type": "function"
    },
    {
      "inputs": [
        {
          "internalType": "address",
          "name": "to",
          "type": "address"
        },
        {
          "internalType": "uint256",
          "name": "tokenId",
          "type": "uint256"
        }
      ],
      "name": "transfer",
      "outputs": [],
      "stateMutability": "nonpayable",
      "type": "function"
    }
  ],
  "bytecode": "0x608060405234801561001057600080fd5b5061089d806100206000396000f3fe608060405234801561001057600080fd5b50600436106100885760003560e01c80636352211e1161005b5780636352211e1461012957806370a082311461015957806395d89b4114610189578063a9059cbb146101a757610088565b806306fdde031461008d57806318160ddd146100ab5780631caaa487146100c957806327e235e3146100f9575b600080fd5b6100956101c3565b6040516100a2919061061e565b60405180910390f35b6100b36101fc565b6040516100c09190610659565b60405180910390f35b6100e360048036038101906100de91906106a5565b610208565b6040516100f09190610713565b60405180910390f35b610113600480360381019061010e919061075a565b61023b565b6040516101209190610659565b60405180910390f35b610143600480360381019061013e91906106a5565b610253565b6040516101509190610713565b60405180910390f35b610173600480360381019061016e919061075a565b610290565b6040516101809190610659565b60405180910390f35b6101916102d9565b60405161019e919061061e565b60405180910390f35b6101c160048036038101906101bc9190610787565b610312565b005b6040518060400160405280600881526020017f5a4b69747469657300000000000000000000000000000000000000000000000081525081565b60008080549050905090565b60026020528060005260406000206000915054906101000a900473ffffffffffffffffffffffffffffffffffffffff1681565b60016020528060005260406000206000915090505481565b60006002600083815260200190815260200160002060009054906101000a900473ffffffffffffffffffffffffffffffffffffffff169050919050565b6000600160008373ffffffffffffffffffffffffffffffffffffffff1673ffffffffffffffffffffffffffffffffffffffff168152602001908152602001600020549050919050565b6040518060400160405280600281526020017f5a4b00000000000000000000000000000000000000000000000000000000000081525081565b600073ffffffffffffffffffffffffffffffffffffffff168273ffffffffffffffffffffffffffffffffffffffff160361034b57600080fd5b3073ffffffffffffffffffffffffffffffffffffffff168273ffffffffffffffffffffffffffffffffffffffff160361038357600080fd5b3373ffffffffffffffffffffffffffffffffffffffff166002600083815260200190815260200160002060009054906101000a900473ffffffffffffffffffffffffffffffffffffffff1673ffffffffffffffffffffffffffffffffffffffff16146103ee57600080fd5b6103f93383836103fd565b5050565b600160008373ffffffffffffffffffffffffffffffffffffffff1673ffffffffffffffffffffffffffffffffffffffff168152602001908152602001600020600081548092919061044d906107f6565b9190505550816002600083815260200190815260200160002060006101000a81548173ffffffffffffffffffffffffffffffffffffffff021916908373ffffffffffffffffffffffffffffffffffffffff160217905550600073ffffffffffffffffffffffffffffffffffffffff168373ffffffffffffffffffffffffffffffffffffffff161461052e57600160008473ffffffffffffffffffffffffffffffffffffffff1673ffffffffffffffffffffffffffffffffffffffff16815260200190815260200160002060008154809291906105289061083e565b91905055505b808273ffffffffffffffffffffffffffffffffffffffff168473ffffffffffffffffffffffffffffffffffffffff167fddf252ad1be2c89b69c2b068fc378daa952ba7f163c4a11628f55a4df523b3ef60405160405180910390a4505050565b600081519050919050565b600082825260208201905092915050565b60005b838110156105c85780820151818401526020810190506105ad565b60008484015250505050565b6000601f19601f8301169050919050565b60006105f08261058e565b6105fa8185610599565b935061060a8185602086016105aa565b610613816105d4565b840191505092915050565b6000602082019050818103600083015261063881846105e5565b905092915050565b6000819050919050565b61065381610640565b82525050565b600060208201905061066e600083018461064a565b92915050565b600080fd5b61068281610640565b811461068d57600080fd5b50565b60008135905061069f81610679565b92915050565b6000602082840312156106bb576106ba610674565b5b60006106c984828501610690565b91505092915050565b600073ffffffffffffffffffffffffffffffffffffffff82169050919050565b60006106fd826106d2565b9050919050565b61070d816106f2565b82525050565b60006020820190506107286000830184610704565b92915050565b610737816106f2565b811461074257600080fd5b50565b6000813590506107548161072e565b92915050565b6000602082840312156107705761076f610674565b5b600061077e84828501610745565b91505092915050565b6000806040838503121561079e5761079d610674565b5b60006107ac85828601610745565b92505060206107bd85828601610690565b9150509250929050565b7f4e487b7100000000000000000000000000000000000000000000000000000000600052601160045260246000fd5b600061080182610640565b91507fffffffffffffffffffffffffffffffffffffffffffffffffffffffffffffffff8203610833576108326107c7565b5b600182019050919050565b600061084982610640565b91506000820361085c5761085b6107c7565b5b60018203905091905056fea2646970667358221220e1099994251dd67d6b1745306f25171ebde9a96427b0b9f5530d2eeaf87af19564736f6c63430008110033",
  "immutableReferences": {},
  "source": "// SPDX-License-Identifier: MIT\r\n\r\npragma solidity 0.8.17;\r\nimport \"./IERC721.sol\";\r\n\r\ncontract Kitty is IERC721{\r\n\r\n    string public constant name = \"ZKitties\";\r\n    string public constant symbol = \"ZK\";\r\n\r\n    struct Kitty{\r\n        uint genes;\r\n        uint64 birthTime;\r\n        uint32 mumId;\r\n        uint32 dadId;\r\n        uint16 generation;\r\n    }\r\n\r\n    Kitty[] kitties;\r\n    \r\n    mapping (address => uint) public balances;\r\n    mapping (uint => address) public tokenOwner;\r\n\r\n    function balanceOf(address owner) external view returns (uint256){\r\n        return balances[owner];\r\n    }\r\n\r\n    function totalSupply() external view returns (uint256){\r\n        return kitties.length;\r\n    }\r\n\r\n    function ownerOf(uint256 tokenId) external view returns (address){\r\n        return tokenOwner[tokenId];\r\n    }\r\n\r\n    function transfer(address to, uint256 tokenId) external{\r\n        require(to != address(0));\r\n        require(to != address(this));\r\n        require(tokenOwner[tokenId] == msg.sender);\r\n        _transfer(msg.sender, to, tokenId);\r\n    }\r\n\r\n    function _transfer(address _from, address _to, uint256 _tokenId) internal{\r\n        balances[_to]++;\r\n        tokenOwner[_tokenId] = _to;\r\n        if(_from != address(0)){\r\n            balances[_from]--;\r\n        }\r\n        emit Transfer(_from, _to, _tokenId);\r\n    }\r\n\r\n}\r\n\r\n\r\n\r\n",
  "sourcePath": "C:\\Users\\Zayna\\Desktop\\cryptokitties-clone\\contracts\\Kitty.sol",
  "compiler": {
    "name": "solc",
    "version": "0.8.17+commit.8df45f5f.Emscripten.clang"
  },
  "schemaVersion": "3.4.3",
  "updatedAt": "2022-09-21T18:26:17.546Z",
  "devdoc": {
    "kind": "dev",
    "methods": {
      "balanceOf(address)": {
        "details": "Returns the number of tokens in ``owner``'s account."
      },
      "ownerOf(uint256)": {
        "details": "Returns the owner of the `tokenId` token. Requirements: - `tokenId` must exist."
      }
    },
    "version": 1
  },
  "userdoc": {
    "kind": "user",
    "methods": {},
    "version": 1
  }
}