{
  "contractName": "KittyContract",
  "abi": [
    {
      "anonymous": false,
      "inputs": [
        {
          "indexed": true,
          "internalType": "address",
          "name": "owner",
          "type": "address"
        },
        {
          "indexed": true,
          "internalType": "address",
          "name": "approved",
          "type": "address"
        },
        {
          "indexed": true,
          "internalType": "uint256",
          "name": "tokenId",
          "type": "uint256"
        }
      ],
      "name": "Approval",
      "type": "event"
    },
    {
      "anonymous": false,
      "inputs": [
        {
          "indexed": true,
          "internalType": "address",
          "name": "owner",
          "type": "address"
        },
        {
          "indexed": true,
          "internalType": "address",
          "name": "operator",
          "type": "address"
        },
        {
          "indexed": false,
          "internalType": "bool",
          "name": "approved",
          "type": "bool"
        }
      ],
      "name": "ApprovalForAll",
      "type": "event"
    },
    {
      "anonymous": false,
      "inputs": [
        {
          "indexed": false,
          "internalType": "address",
          "name": "owner",
          "type": "address"
        },
        {
          "indexed": false,
          "internalType": "uint256",
          "name": "kittyId",
          "type": "uint256"
        },
        {
          "indexed": false,
          "internalType": "uint256",
          "name": "genes",
          "type": "uint256"
        },
        {
          "indexed": false,
          "internalType": "uint256",
          "name": "mumId",
          "type": "uint256"
        },
        {
          "indexed": false,
          "internalType": "uint256",
          "name": "dadId",
          "type": "uint256"
        }
      ],
      "name": "Birth",
      "type": "event"
    },
    {
      "anonymous": false,
      "inputs": [
        {
          "indexed": true,
          "internalType": "address",
          "name": "from",
          "type": "address"
        },
        {
          "indexed": true,
          "internalType": "address",
          "name": "to",
          "type": "address"
        },
        {
          "indexed": true,
          "internalType": "uint256",
          "name": "tokenId",
          "type": "uint256"
        }
      ],
      "name": "Transfer",
      "type": "event"
    },
    {
      "inputs": [],
      "name": "LIMIT_GEN0",
      "outputs": [
        {
          "internalType": "uint256",
          "name": "",
          "type": "uint256"
        }
      ],
      "stateMutability": "view",
      "type": "function"
    },
    {
      "inputs": [],
      "name": "gen0Counter",
      "outputs": [
        {
          "internalType": "uint256",
          "name": "",
          "type": "uint256"
        }
      ],
      "stateMutability": "view",
      "type": "function"
    },
    {
      "inputs": [],
      "name": "name",
      "outputs": [
        {
          "internalType": "string",
          "name": "",
          "type": "string"
        }
      ],
      "stateMutability": "view",
      "type": "function"
    },
    {
      "inputs": [],
      "name": "owner",
      "outputs": [
        {
          "internalType": "address",
          "name": "",
          "type": "address"
        }
      ],
      "stateMutability": "view",
      "type": "function"
    },
    {
      "inputs": [],
      "name": "symbol",
      "outputs": [
        {
          "internalType": "string",
          "name": "",
          "type": "string"
        }
      ],
      "stateMutability": "view",
      "type": "function"
    },
    {
      "inputs": [
        {
          "internalType": "uint256",
          "name": "",
          "type": "uint256"
        }
      ],
      "name": "tokenApprovedTo",
      "outputs": [
        {
          "internalType": "address",
          "name": "",
          "type": "address"
        }
      ],
      "stateMutability": "view",
      "type": "function"
    },
    {
      "inputs": [
        {
          "internalType": "uint256",
          "name": "",
          "type": "uint256"
        }
      ],
      "name": "tokenOwner",
      "outputs": [
        {
          "internalType": "address",
          "name": "",
          "type": "address"
        }
      ],
      "stateMutability": "view",
      "type": "function"
    },
    {
      "inputs": [
        {
          "internalType": "address",
          "name": "newOwner",
          "type": "address"
        }
      ],
      "name": "transferOwnership",
      "outputs": [],
      "stateMutability": "nonpayable",
      "type": "function"
    },
    {
      "inputs": [
        {
          "internalType": "bytes4",
          "name": "_interfaceId",
          "type": "bytes4"
        }
      ],
      "name": "supportsInterface",
      "outputs": [
        {
          "internalType": "bool",
          "name": "",
          "type": "bool"
        }
      ],
      "stateMutability": "pure",
      "type": "function"
    },
    {
      "inputs": [
        {
          "internalType": "address",
          "name": "_approved",
          "type": "address"
        },
        {
          "internalType": "uint256",
          "name": "_tokenId",
          "type": "uint256"
        }
      ],
      "name": "approve",
      "outputs": [],
      "stateMutability": "nonpayable",
      "type": "function"
    },
    {
      "inputs": [
        {
          "internalType": "address",
          "name": "_operator",
          "type": "address"
        },
        {
          "internalType": "bool",
          "name": "_approved",
          "type": "bool"
        }
      ],
      "name": "setApprovalForAll",
      "outputs": [],
      "stateMutability": "nonpayable",
      "type": "function"
    },
    {
      "inputs": [
        {
          "internalType": "uint256",
          "name": "_tokenId",
          "type": "uint256"
        }
      ],
      "name": "getApproved",
      "outputs": [
        {
          "internalType": "address",
          "name": "",
          "type": "address"
        }
      ],
      "stateMutability": "view",
      "type": "function"
    },
    {
      "inputs": [
        {
          "internalType": "address",
          "name": "_owner",
          "type": "address"
        },
        {
          "internalType": "address",
          "name": "_operator",
          "type": "address"
        }
      ],
      "name": "isApprovedForAll",
      "outputs": [
        {
          "internalType": "bool",
          "name": "",
          "type": "bool"
        }
      ],
      "stateMutability": "view",
      "type": "function"
    },
    {
      "inputs": [
        {
          "internalType": "uint256",
          "name": "_genes",
          "type": "uint256"
        }
      ],
      "name": "createKittyGen0",
      "outputs": [],
      "stateMutability": "nonpayable",
      "type": "function"
    },
    {
      "inputs": [
        {
          "internalType": "uint256",
          "name": "_id",
          "type": "uint256"
        }
      ],
      "name": "getKitty",
      "outputs": [
        {
          "internalType": "uint256",
          "name": "genes",
          "type": "uint256"
        },
        {
          "internalType": "uint256",
          "name": "birthTime",
          "type": "uint256"
        },
        {
          "internalType": "uint256",
          "name": "mumId",
          "type": "uint256"
        },
        {
          "internalType": "uint256",
          "name": "dadId",
          "type": "uint256"
        },
        {
          "internalType": "uint256",
          "name": "generation",
          "type": "uint256"
        }
      ],
      "stateMutability": "view",
      "type": "function"
    },
    {
      "inputs": [
        {
          "internalType": "address",
          "name": "owner",
          "type": "address"
        }
      ],
      "name": "balanceOf",
      "outputs": [
        {
          "internalType": "uint256",
          "name": "",
          "type": "uint256"
        }
      ],
      "stateMutability": "view",
      "type": "function"
    },
    {
      "inputs": [],
      "name": "totalSupply",
      "outputs": [
        {
          "internalType": "uint256",
          "name": "",
          "type": "uint256"
        }
      ],
      "stateMutability": "view",
      "type": "function"
    },
    {
      "inputs": [
        {
          "internalType": "uint256",
          "name": "tokenId",
          "type": "uint256"
        }
      ],
      "name": "ownerOf",
      "outputs": [
        {
          "internalType": "address",
          "name": "",
          "type": "address"
        }
      ],
      "stateMutability": "view",
      "type": "function"
    },
    {
      "inputs": [
        {
          "internalType": "address",
          "name": "to",
          "type": "address"
        },
        {
          "internalType": "uint256",
          "name": "tokenId",
          "type": "uint256"
        }
      ],
      "name": "transfer",
      "outputs": [],
      "stateMutability": "nonpayable",
      "type": "function"
    },
    {
      "inputs": [
        {
          "internalType": "address",
          "name": "_from",
          "type": "address"
        },
        {
          "internalType": "address",
          "name": "_to",
          "type": "address"
        },
        {
          "internalType": "uint256",
          "name": "_tokenId",
          "type": "uint256"
        }
      ],
      "name": "transferFrom",
      "outputs": [],
      "stateMutability": "nonpayable",
      "type": "function"
    },
    {
      "inputs": [
        {
          "internalType": "address",
          "name": "_from",
          "type": "address"
        },
        {
          "internalType": "address",
          "name": "_to",
          "type": "address"
        },
        {
          "internalType": "uint256",
          "name": "_tokenId",
          "type": "uint256"
        }
      ],
      "name": "safeTransferFrom",
      "outputs": [],
      "stateMutability": "nonpayable",
      "type": "function"
    },
    {
      "inputs": [
        {
          "internalType": "address",
          "name": "_from",
          "type": "address"
        },
        {
          "internalType": "address",
          "name": "_to",
          "type": "address"
        },
        {
          "internalType": "uint256",
          "name": "_tokenId",
          "type": "uint256"
        },
        {
          "internalType": "bytes",
          "name": "_data",
          "type": "bytes"
        }
      ],
      "name": "safeTransferFrom",
      "outputs": [],
      "stateMutability": "nonpayable",
      "type": "function"
    }
  ],
  "bytecode": "0x608060405234801561001057600080fd5b50336000806101000a81548173ffffffffffffffffffffffffffffffffffffffff021916908373ffffffffffffffffffffffffffffffffffffffff160217905550611d73806100606000396000f3fe608060405234801561001057600080fd5b50600436106101425760003560e01c8063880ffb0c116100b8578063b88d4fde1161007c578063b88d4fde14610389578063d5a776ca146103a5578063e985e9c5146103c1578063e98b7f4d146103f1578063ef5e94aa14610425578063f2fde38b1461044357610142565b8063880ffb0c146102f75780638da5cb5b1461031557806395d89b4114610333578063a22cb46514610351578063a9059cbb1461036d57610142565b80631caaa4871161010a5780631caaa487146101ff57806323b872dd1461022f57806342842e0e1461024b5780634823f07b146102675780636352211e1461029757806370a08231146102c757610142565b806301ffc9a71461014757806306fdde0314610177578063081812fc14610195578063095ea7b3146101c557806318160ddd146101e1575b600080fd5b610161600480360381019061015c9190611518565b61045f565b60405161016e9190611560565b60405180910390f35b61017f6104ff565b60405161018c919061160b565b60405180910390f35b6101af60048036038101906101aa9190611663565b610538565b6040516101bc91906116d1565b60405180910390f35b6101df60048036038101906101da9190611718565b610588565b005b6101e9610604565b6040516101f69190611767565b60405180910390f35b61021960048036038101906102149190611663565b610611565b60405161022691906116d1565b60405180910390f35b61024960048036038101906102449190611782565b610644565b005b61026560048036038101906102609190611782565b6107d4565b005b610281600480360381019061027c9190611663565b6107f4565b60405161028e91906116d1565b60405180910390f35b6102b160048036038101906102ac9190611663565b610827565b6040516102be91906116d1565b60405180910390f35b6102e160048036038101906102dc91906117d5565b610864565b6040516102ee9190611767565b60405180910390f35b6102ff6108ad565b60405161030c9190611767565b60405180910390f35b61031d6108b2565b60405161032a91906116d1565b60405180910390f35b61033b6108d6565b604051610348919061160b565b60405180910390f35b61036b6004803603810190610366919061182e565b61090f565b005b61038760048036038101906103829190611718565b610a44565b005b6103a3600480360381019061039e91906119a3565b610ad9565b005b6103bf60048036038101906103ba9190611663565b610b00565b005b6103db60048036038101906103d69190611a26565b610b92565b6040516103e89190611560565b60405180910390f35b61040b60048036038101906104069190611663565b610c26565b60405161041c959493929190611a66565b60405180910390f35b61042d610d4d565b60405161043a9190611767565b60405180910390f35b61045d600480360381019061045891906117d5565b610d53565b005b60006380ac58cd60e01b7bffffffffffffffffffffffffffffffffffffffffffffffffffffffff1916827bffffffffffffffffffffffffffffffffffffffffffffffffffffffff191614806104f857506301ffc9a760e01b7bffffffffffffffffffffffffffffffffffffffffffffffffffffffff1916827bffffffffffffffffffffffffffffffffffffffffffffffffffffffff1916145b9050919050565b6040518060400160405280600881526020017f5a4b69747469657300000000000000000000000000000000000000000000000081525081565b600081600180549050811061054c57600080fd5b6004600084815260200190815260200160002060009054906101000a900473ffffffffffffffffffffffffffffffffffffffff16915050919050565b6105923382610e23565b61059b57600080fd5b6105a58282610e8f565b808273ffffffffffffffffffffffffffffffffffffffff163373ffffffffffffffffffffffffffffffffffffffff167f8c5be1e5ebec7d5bd14f71427d1e84f3dd0314c0f7b2291e5b200ac8c7c3b92560405160405180910390a45050565b6000600180549050905090565b60036020528060005260406000206000915054906101000a900473ffffffffffffffffffffffffffffffffffffffff1681565b81600073ffffffffffffffffffffffffffffffffffffffff168173ffffffffffffffffffffffffffffffffffffffff160361067e57600080fd5b60008054906101000a900473ffffffffffffffffffffffffffffffffffffffff1673ffffffffffffffffffffffffffffffffffffffff163373ffffffffffffffffffffffffffffffffffffffff16146106d657600080fd5b8160018054905081106106e857600080fd5b3373ffffffffffffffffffffffffffffffffffffffff168573ffffffffffffffffffffffffffffffffffffffff16148061072857506107278386610ee5565b5b806107b95750600560008673ffffffffffffffffffffffffffffffffffffffff1673ffffffffffffffffffffffffffffffffffffffff16815260200190815260200160002060003373ffffffffffffffffffffffffffffffffffffffff1673ffffffffffffffffffffffffffffffffffffffff16815260200190815260200160002060009054906101000a900460ff165b6107c257600080fd5b6107cd338585610f51565b5050505050565b6107ef83838360405180602001604052806000815250610ad9565b505050565b60046020528060005260406000206000915054906101000a900473ffffffffffffffffffffffffffffffffffffffff1681565b60006003600083815260200190815260200160002060009054906101000a900473ffffffffffffffffffffffffffffffffffffffff169050919050565b6000600260008373ffffffffffffffffffffffffffffffffffffffff1673ffffffffffffffffffffffffffffffffffffffff168152602001908152602001600020549050919050565b600a81565b60008054906101000a900473ffffffffffffffffffffffffffffffffffffffff1681565b6040518060400160405280600281526020017f5a4b00000000000000000000000000000000000000000000000000000000000081525081565b8173ffffffffffffffffffffffffffffffffffffffff163373ffffffffffffffffffffffffffffffffffffffff160361094757600080fd5b80600560003373ffffffffffffffffffffffffffffffffffffffff1673ffffffffffffffffffffffffffffffffffffffff16815260200190815260200160002060008473ffffffffffffffffffffffffffffffffffffffff1673ffffffffffffffffffffffffffffffffffffffff16815260200190815260200160002060006101000a81548160ff0219169083151502179055508173ffffffffffffffffffffffffffffffffffffffff163373ffffffffffffffffffffffffffffffffffffffff167f17307eab39ab6107e8899845ad3d59bd9653f200f220920489ca2b5937696c3183604051610a389190611560565b60405180910390a35050565b81600073ffffffffffffffffffffffffffffffffffffffff168173ffffffffffffffffffffffffffffffffffffffff1603610a7e57600080fd5b3073ffffffffffffffffffffffffffffffffffffffff168373ffffffffffffffffffffffffffffffffffffffff1603610ab657600080fd5b610ac03383610e23565b610ac957600080fd5b610ad4338484610f51565b505050565b610ae533858585611118565b610aee57600080fd5b610afa848484846111d6565b50505050565b60008054906101000a900473ffffffffffffffffffffffffffffffffffffffff1673ffffffffffffffffffffffffffffffffffffffff163373ffffffffffffffffffffffffffffffffffffffff1614610b5857600080fd5b600a60065410610b6757600080fd5b610b76816000806000336111fc565b5060066000815480929190610b8a90611ae8565b919050555050565b6000600560008473ffffffffffffffffffffffffffffffffffffffff1673ffffffffffffffffffffffffffffffffffffffff16815260200190815260200160002060008373ffffffffffffffffffffffffffffffffffffffff1673ffffffffffffffffffffffffffffffffffffffff16815260200190815260200160002060009054906101000a900460ff16905092915050565b60008060008060008060018781548110610c4357610c42611b30565b5b90600052602060002090600202016040518060a0016040529081600082015481526020016001820160009054906101000a900467ffffffffffffffff1667ffffffffffffffff1667ffffffffffffffff1681526020016001820160089054906101000a900463ffffffff1663ffffffff1663ffffffff16815260200160018201600c9054906101000a900463ffffffff1663ffffffff1663ffffffff1681526020016001820160109054906101000a900461ffff1661ffff1661ffff1681525050905080600001519550806020015167ffffffffffffffff169450806040015163ffffffff169350806060015163ffffffff169250806080015161ffff1691505091939590929450565b60065481565b60008054906101000a900473ffffffffffffffffffffffffffffffffffffffff1673ffffffffffffffffffffffffffffffffffffffff163373ffffffffffffffffffffffffffffffffffffffff1614610dab57600080fd5b600073ffffffffffffffffffffffffffffffffffffffff168173ffffffffffffffffffffffffffffffffffffffff1614610e2057806000806101000a81548173ffffffffffffffffffffffffffffffffffffffff021916908373ffffffffffffffffffffffffffffffffffffffff1602179055505b50565b60008273ffffffffffffffffffffffffffffffffffffffff166003600084815260200190815260200160002060009054906101000a900473ffffffffffffffffffffffffffffffffffffffff1673ffffffffffffffffffffffffffffffffffffffff1614905092915050565b816004600083815260200190815260200160002060006101000a81548173ffffffffffffffffffffffffffffffffffffffff021916908373ffffffffffffffffffffffffffffffffffffffff1602179055505050565b60008173ffffffffffffffffffffffffffffffffffffffff166004600085815260200190815260200160002060009054906101000a900473ffffffffffffffffffffffffffffffffffffffff1673ffffffffffffffffffffffffffffffffffffffff1614905092915050565b600260008373ffffffffffffffffffffffffffffffffffffffff1673ffffffffffffffffffffffffffffffffffffffff1681526020019081526020016000206000815480929190610fa190611ae8565b9190505550816003600083815260200190815260200160002060006101000a81548173ffffffffffffffffffffffffffffffffffffffff021916908373ffffffffffffffffffffffffffffffffffffffff160217905550600073ffffffffffffffffffffffffffffffffffffffff168373ffffffffffffffffffffffffffffffffffffffff16146110b857600260008473ffffffffffffffffffffffffffffffffffffffff1673ffffffffffffffffffffffffffffffffffffffff168152602001908152602001600020600081548092919061107c90611b5f565b91905055506004600082815260200190815260200160002060006101000a81549073ffffffffffffffffffffffffffffffffffffffff02191690555b808273ffffffffffffffffffffffffffffffffffffffff168473ffffffffffffffffffffffffffffffffffffffff167fddf252ad1be2c89b69c2b068fc378daa952ba7f163c4a11628f55a4df523b3ef60405160405180910390a4505050565b600082600073ffffffffffffffffffffffffffffffffffffffff168173ffffffffffffffffffffffffffffffffffffffff160361115457600080fd5b82600180549050811061116657600080fd5b6111708685610e23565b61117957600080fd5b8573ffffffffffffffffffffffffffffffffffffffff168773ffffffffffffffffffffffffffffffffffffffff1614806111b957506111b88487610ee5565b5b806111ca57506111c98688610b92565b5b92505050949350505050565b6111e1848484610f51565b6111ed84848484611388565b6111f657600080fd5b50505050565b6000806040518060a001604052808881526020014267ffffffffffffffff1681526020018763ffffffff1681526020018663ffffffff1681526020018561ffff16815250905060018190806001815401808255809150506001900390600052602060002090600202016000909190919091506000820151816000015560208201518160010160006101000a81548167ffffffffffffffff021916908367ffffffffffffffff16021790555060408201518160010160086101000a81548163ffffffff021916908363ffffffff160217905550606082015181600101600c6101000a81548163ffffffff021916908363ffffffff16021790555060808201518160010160106101000a81548161ffff021916908361ffff160217905550505060006001808054905061132d9190611b88565b905061133b60008583610f51565b7f0a5311bd2a6608f08a180df2ee7c5946819a649b204b554bb8e39825b2c50ad584828a8a8a604051611372959493929190611c07565b60405180910390a1809250505095945050505050565b600061139384611493565b6113a0576001905061148b565b60008473ffffffffffffffffffffffffffffffffffffffff1663150b7a02338887876040518563ffffffff1660e01b81526004016113e19493929190611caf565b6020604051808303816000875af1158015611400573d6000803e3d6000fd5b505050506040513d601f19601f820116820180604052508101906114249190611d10565b90507f150b7a023d4804d13e8c85fb27262cb750cf6ba9f9dd3bb30d90f482ceeb4b1f7bffffffffffffffffffffffffffffffffffffffffffffffffffffffff1916817bffffffffffffffffffffffffffffffffffffffffffffffffffffffff1916149150505b949350505050565b600080823b905060008163ffffffff1611915050919050565b6000604051905090565b600080fd5b600080fd5b60007fffffffff0000000000000000000000000000000000000000000000000000000082169050919050565b6114f5816114c0565b811461150057600080fd5b50565b600081359050611512816114ec565b92915050565b60006020828403121561152e5761152d6114b6565b5b600061153c84828501611503565b91505092915050565b60008115159050919050565b61155a81611545565b82525050565b60006020820190506115756000830184611551565b92915050565b600081519050919050565b600082825260208201905092915050565b60005b838110156115b557808201518184015260208101905061159a565b60008484015250505050565b6000601f19601f8301169050919050565b60006115dd8261157b565b6115e78185611586565b93506115f7818560208601611597565b611600816115c1565b840191505092915050565b6000602082019050818103600083015261162581846115d2565b905092915050565b6000819050919050565b6116408161162d565b811461164b57600080fd5b50565b60008135905061165d81611637565b92915050565b600060208284031215611679576116786114b6565b5b60006116878482850161164e565b91505092915050565b600073ffffffffffffffffffffffffffffffffffffffff82169050919050565b60006116bb82611690565b9050919050565b6116cb816116b0565b82525050565b60006020820190506116e660008301846116c2565b92915050565b6116f5816116b0565b811461170057600080fd5b50565b600081359050611712816116ec565b92915050565b6000806040838503121561172f5761172e6114b6565b5b600061173d85828601611703565b925050602061174e8582860161164e565b9150509250929050565b6117618161162d565b82525050565b600060208201905061177c6000830184611758565b92915050565b60008060006060848603121561179b5761179a6114b6565b5b60006117a986828701611703565b93505060206117ba86828701611703565b92505060406117cb8682870161164e565b9150509250925092565b6000602082840312156117eb576117ea6114b6565b5b60006117f984828501611703565b91505092915050565b61180b81611545565b811461181657600080fd5b50565b60008135905061182881611802565b92915050565b60008060408385031215611845576118446114b6565b5b600061185385828601611703565b925050602061186485828601611819565b9150509250929050565b600080fd5b600080fd5b7f4e487b7100000000000000000000000000000000000000000000000000000000600052604160045260246000fd5b6118b0826115c1565b810181811067ffffffffffffffff821117156118cf576118ce611878565b5b80604052505050565b60006118e26114ac565b90506118ee82826118a7565b919050565b600067ffffffffffffffff82111561190e5761190d611878565b5b611917826115c1565b9050602081019050919050565b82818337600083830152505050565b6000611946611941846118f3565b6118d8565b90508281526020810184848401111561196257611961611873565b5b61196d848285611924565b509392505050565b600082601f83011261198a5761198961186e565b5b813561199a848260208601611933565b91505092915050565b600080600080608085870312156119bd576119bc6114b6565b5b60006119cb87828801611703565b94505060206119dc87828801611703565b93505060406119ed8782880161164e565b925050606085013567ffffffffffffffff811115611a0e57611a0d6114bb565b5b611a1a87828801611975565b91505092959194509250565b60008060408385031215611a3d57611a3c6114b6565b5b6000611a4b85828601611703565b9250506020611a5c85828601611703565b9150509250929050565b600060a082019050611a7b6000830188611758565b611a886020830187611758565b611a956040830186611758565b611aa26060830185611758565b611aaf6080830184611758565b9695505050505050565b7f4e487b7100000000000000000000000000000000000000000000000000000000600052601160045260246000fd5b6000611af38261162d565b91507fffffffffffffffffffffffffffffffffffffffffffffffffffffffffffffffff8203611b2557611b24611ab9565b5b600182019050919050565b7f4e487b7100000000000000000000000000000000000000000000000000000000600052603260045260246000fd5b6000611b6a8261162d565b915060008203611b7d57611b7c611ab9565b5b600182039050919050565b6000611b938261162d565b9150611b9e8361162d565b9250828203905081811115611bb657611bb5611ab9565b5b92915050565b600063ffffffff82169050919050565b6000819050919050565b6000611bf1611bec611be784611bbc565b611bcc565b61162d565b9050919050565b611c0181611bd6565b82525050565b600060a082019050611c1c60008301886116c2565b611c296020830187611758565b611c366040830186611758565b611c436060830185611bf8565b611c506080830184611bf8565b9695505050505050565b600081519050919050565b600082825260208201905092915050565b6000611c8182611c5a565b611c8b8185611c65565b9350611c9b818560208601611597565b611ca4816115c1565b840191505092915050565b6000608082019050611cc460008301876116c2565b611cd160208301866116c2565b611cde6040830185611758565b8181036060830152611cf08184611c76565b905095945050505050565b600081519050611d0a816114ec565b92915050565b600060208284031215611d2657611d256114b6565b5b6000611d3484828501611cfb565b9150509291505056fea26469706673582212203fb39c512658caf074d1e9859d2ed631d7e85a45fd29729fc0bdb8b7bfb1f6df64736f6c63430008110033",
  "immutableReferences": {},
  "source": "// SPDX-License-Identifier: MIT\r\n\r\npragma solidity 0.8.17;\r\nimport \"./IERC721.sol\";\r\nimport \"./IERC721Receiver.sol\";\r\nimport \"./Ownable.sol\";\r\n\r\ncontract KittyContract is IERC721, Ownable{\r\n\r\n    string public constant name = \"ZKitties\";\r\n    string public constant symbol = \"ZK\";\r\n    uint public constant LIMIT_GEN0 = 10;\r\n    bytes4 internal constant ERC721_RECEIVED = bytes4(keccak256(\"onERC721Received(address,address,uint256,bytes)\"));\r\n\r\n    /*\r\n     *     bytes4(keccak256('balanceOf(address)')) == 0x70a08231\r\n     *     bytes4(keccak256('ownerOf(uint256)')) == 0x6352211e\r\n     *     bytes4(keccak256('approve(address,uint256)')) == 0x095ea7b3\r\n     *     bytes4(keccak256('getApproved(uint256)')) == 0x081812fc\r\n     *     bytes4(keccak256('setApprovalForAll(address,bool)')) == 0xa22cb465\r\n     *     bytes4(keccak256('isApprovedForAll(address,address)')) == 0xe985e9c5\r\n     *     bytes4(keccak256('transferFrom(address,address,uint256)')) == 0x23b872dd\r\n     *     bytes4(keccak256('safeTransferFrom(address,address,uint256)')) == 0x42842e0e\r\n     *     bytes4(keccak256('safeTransferFrom(address,address,uint256,bytes)')) == 0xb88d4fde\r\n     *\r\n     *     => 0x70a08231 ^ 0x6352211e ^ 0x095ea7b3 ^ 0x081812fc ^\r\n     *        0xa22cb465 ^ 0xe985e9c ^ 0x23b872dd ^ 0x42842e0e ^ 0xb88d4fde == 0x80ac58cd\r\n     */\r\n    bytes4 private constant _INTERFACE_ID_ERC721 = 0x80ac58cd;\r\n\r\n    /*\r\n     *     bytes4(keccak256('supportsInterface(bytes4)'));\r\n     */\r\n    bytes4 private constant _INTERFACE_ID_ERC165 = 0x01ffc9a7;\r\n\r\n    struct Kitty{\r\n        uint256 genes;\r\n        uint64 birthTime;\r\n        uint32 mumId;\r\n        uint32 dadId;\r\n        uint16 generation;\r\n    }\r\n\r\n    Kitty[] kitties;\r\n\r\n    mapping (address => uint) balances;\r\n    mapping (uint => address) public tokenOwner;\r\n    mapping (uint => address) public tokenApprovedTo;\r\n    mapping (address => mapping (address => bool)) private operatorApprovals;\r\n\r\n    uint256 public gen0Counter;\r\n\r\n    event Birth(address owner, uint kittyId, uint genes, uint mumId, uint dadId);\r\n\r\n    function supportsInterface(bytes4 _interfaceId) external pure returns (bool){\r\n        return ( _interfaceId == _INTERFACE_ID_ERC721 || _interfaceId == _INTERFACE_ID_ERC165);\r\n    }\r\n\r\n    function approve(address _approved, uint256 _tokenId) external {\r\n        require(_owns(msg.sender, _tokenId));\r\n        _approve(_approved, _tokenId);\r\n\r\n        emit Approval(msg.sender, _approved,_tokenId);\r\n    }\r\n\r\n    function setApprovalForAll(address _operator, bool _approved) external{\r\n        require(msg.sender != _operator);\r\n        operatorApprovals[msg.sender][_operator] = _approved;\r\n        emit ApprovalForAll(msg.sender, _operator, _approved);\r\n    }\r\n\r\n    function getApproved(uint256 _tokenId) external view isValidToken(_tokenId) returns (address){\r\n        return tokenApprovedTo[_tokenId];\r\n    }\r\n\r\n    function isApprovedForAll(address _owner, address _operator) public view returns (bool){\r\n        return operatorApprovals[_owner][_operator];\r\n    }\r\n\r\n\r\n    function createKittyGen0(uint _genes) public onlyOwner{\r\n        require(gen0Counter < LIMIT_GEN0);\r\n        _createKitty(_genes, 0, 0, 0, msg.sender);\r\n        gen0Counter++;\r\n    }\r\n\r\n    function getKitty(uint _id) external view returns(\r\n        uint256 genes,\r\n        uint256 birthTime,\r\n        uint256 mumId,\r\n        uint256 dadId,\r\n        uint256 generation\r\n    ){\r\n            Kitty memory kitty = kitties[_id];\r\n            genes = uint256(kitty.genes);\r\n            birthTime = uint256(kitty.birthTime);\r\n            mumId = uint256(kitty.mumId);\r\n            dadId = uint256(kitty.dadId);\r\n            generation = uint256(kitty.generation);\r\n        }\r\n\r\n    function balanceOf(address owner) external view returns (uint256){\r\n        return balances[owner];\r\n    }\r\n\r\n    function totalSupply() external view returns (uint256){\r\n        return kitties.length;\r\n    }\r\n\r\n    function ownerOf(uint256 tokenId) external view returns (address){\r\n        return tokenOwner[tokenId];\r\n    }\r\n\r\n    function transfer(address to, uint256 tokenId) external isValidAddress(to){\r\n        require(to != address(this));\r\n        require(_owns(msg.sender, tokenId));\r\n        _transfer(msg.sender, to, tokenId);\r\n    }\r\n\r\n    function transferFrom(address _from, address _to, uint256 _tokenId) external isValidAddress(_to) onlyOwner isValidToken(_tokenId){\r\n        require(_from == msg.sender || _approvedFor(_tokenId,_from) || operatorApprovals[_from][msg.sender]);\r\n        _transfer(msg.sender, _to, _tokenId);\r\n    }\r\n\r\n    modifier isValidAddress(address _address){\r\n        require(_address != address(0));\r\n        _;\r\n    }\r\n\r\n    modifier isValidToken(uint _tokenId){\r\n        require(_tokenId < kitties.length);\r\n        _;\r\n    }\r\n\r\n    function _createKitty(\r\n        uint256 _genes,\r\n        uint32 _mumId,\r\n        uint32 _dadId,\r\n        uint16 _generation,\r\n        address _owner\r\n    ) internal returns(uint256){\r\n        Kitty memory kitty = Kitty(\r\n            _genes,\r\n            uint64(block.timestamp),\r\n            uint32(_mumId),\r\n            uint32(_dadId),\r\n            _generation\r\n        );\r\n        kitties.push(kitty);\r\n        uint kittyId = kitties.length - 1;\r\n        _transfer(address(0), _owner, kittyId);\r\n        emit Birth(_owner, kittyId, _genes, _mumId, _dadId);\r\n        return kittyId;\r\n    }\r\n\r\n   function safeTransferFrom(address _from, address _to, uint256 _tokenId) public {\r\n        safeTransferFrom(_from, _to, _tokenId, \"\");\r\n    }\r\n\r\n    function safeTransferFrom(address _from, address _to, uint256 _tokenId, bytes memory _data) public {\r\n        require( _isApprovedOrOwner(msg.sender, _from, _to, _tokenId) );\r\n        _safeTransfer(_from, _to, _tokenId, _data);\r\n    }\r\n\r\n    function _safeTransfer(address _from, address _to, uint256 _tokenId, bytes memory _data) internal{\r\n        _transfer(_from, _to, _tokenId);\r\n        require( _checkERC721Support(_from, _to, _tokenId, _data) );\r\n    }\r\n\r\n    function _transfer(address _from, address _to, uint256 _tokenId) internal{\r\n        balances[_to]++;\r\n        tokenOwner[_tokenId] = _to;\r\n        if(_from != address(0)){\r\n            balances[_from]--;\r\n            delete tokenApprovedTo[_tokenId];\r\n        }\r\n        emit Transfer(_from, _to, _tokenId);\r\n    }\r\n\r\n    function _owns(address _owner, uint256 _tokenId) internal view returns (bool) {\r\n        return tokenOwner[_tokenId] == _owner;\r\n    }\r\n\r\n    function _approve(address _approved, uint256 _tokenId) internal {\r\n        tokenApprovedTo[_tokenId] = _approved;\r\n    }\r\n\r\n    function _approvedFor(uint _tokenId, address _approvedTo) internal view returns(bool){\r\n        return tokenApprovedTo[_tokenId] == _approvedTo;\r\n    }\r\n\r\n    function _checkERC721Support(address _from, address _to, uint _tokenId, bytes memory data) internal returns (bool){\r\n        if(!_isContract(_to)){\r\n            return true;\r\n        }\r\n\r\n        bytes4 returnData = IERC721Receiver(_to).onERC721Received(msg.sender, _from, _tokenId, data);\r\n        return returnData == ERC721_RECEIVED;\r\n    }\r\n\r\n    function _isContract(address _to) internal view returns (bool){\r\n        uint32 size;\r\n        assembly{\r\n            size := extcodesize(_to)\r\n        }\r\n        return size > 0;\r\n    }\r\n\r\n    function _isApprovedOrOwner(address _spender, address _from, address _to, uint256 _tokenId) internal view isValidAddress(_to) isValidToken(_tokenId) returns (bool) {\r\n        require(_owns(_from, _tokenId)); \r\n        \r\n        return (_spender == _from || _approvedFor(_tokenId, _from) || isApprovedForAll(_from, _spender));\r\n    }\r\n}\r\n\r\n\r\n\r\n",
  "sourcePath": "C:\\Users\\Zayna\\Desktop\\cryptokitties-clone\\contracts\\Kitty.sol",
  "compiler": {
    "name": "solc",
    "version": "0.8.17+commit.8df45f5f.Emscripten.clang"
  },
  "schemaVersion": "3.4.3",
  "updatedAt": "2022-09-23T23:06:14.005Z",
  "devdoc": {
    "kind": "dev",
    "methods": {
      "approve(address,uint256)": {
        "details": "The zero address indicates there is no approved address.  Throws unless `msg.sender` is the current NFT owner, or an authorized  operator of the current owner.",
        "params": {
          "_approved": "The new approved NFT controller",
          "_tokenId": "The NFT to approve"
        }
      },
      "balanceOf(address)": {
        "details": "Returns the number of tokens in ``owner``'s account."
      },
      "getApproved(uint256)": {
        "details": "Throws if `_tokenId` is not a valid NFT.",
        "params": {
          "_tokenId": "The NFT to find the approved address for"
        },
        "returns": {
          "_0": "The approved address for this NFT, or the zero address if there is none"
        }
      },
      "isApprovedForAll(address,address)": {
        "params": {
          "_operator": "The address that acts on behalf of the owner",
          "_owner": "The address that owns the NFTs"
        },
        "returns": {
          "_0": "True if `_operator` is an approved operator for `_owner`, false otherwise"
        }
      },
      "ownerOf(uint256)": {
        "details": "Returns the owner of the `tokenId` token. Requirements: - `tokenId` must exist."
      },
      "safeTransferFrom(address,address,uint256)": {
        "details": "This works identically to the other function with an extra data parameter,  except this function just sets data to \"\".",
        "params": {
          "_from": "The current owner of the NFT",
          "_to": "The new owner",
          "_tokenId": "The NFT to transfer"
        }
      },
      "setApprovalForAll(address,bool)": {
        "details": "Emits the ApprovalForAll event. The contract MUST allow  multiple operators per owner.",
        "params": {
          "_approved": "True if the operator is approved, false to revoke approval",
          "_operator": "Address to add to the set of authorized operators"
        }
      },
      "transferFrom(address,address,uint256)": {
        "details": "Throws unless `msg.sender` is the current owner, an authorized  operator, or the approved address for this NFT. Throws if `_from` is  not the current owner. Throws if `_to` is the zero address. Throws if  `_tokenId` is not a valid NFT.",
        "params": {
          "_from": "The current owner of the NFT",
          "_to": "The new owner",
          "_tokenId": "The NFT to transfer"
        }
      },
      "transferOwnership(address)": {
        "details": "Allows the current owner to transfer control of the contract to a newOwner.",
        "params": {
          "newOwner": "The address to transfer ownership to."
        }
      }
    },
    "version": 1
  },
  "userdoc": {
    "kind": "user",
    "methods": {
      "approve(address,uint256)": {
        "notice": "Change or reaffirm the approved address for an NFT"
      },
      "getApproved(uint256)": {
        "notice": "Get the approved address for a single NFT"
      },
      "isApprovedForAll(address,address)": {
        "notice": "Query if an address is an authorized operator for another address"
      },
      "safeTransferFrom(address,address,uint256)": {
        "notice": "Transfers the ownership of an NFT from one address to another address"
      },
      "setApprovalForAll(address,bool)": {
        "notice": "Enable or disable approval for a third party (\"operator\") to manage  all of `msg.sender`'s assets"
      },
      "transferFrom(address,address,uint256)": {
        "notice": "Transfer ownership of an NFT -- THE CALLER IS RESPONSIBLE  TO CONFIRM THAT `_to` IS CAPABLE OF RECEIVING NFTS OR ELSE  THEY MAY BE PERMANENTLY LOST"
      }
    },
    "version": 1
  }
}