{
  "contractName": "KittyContract",
  "abi": [
    {
      "anonymous": false,
      "inputs": [
        {
          "indexed": true,
          "internalType": "address",
          "name": "owner",
          "type": "address"
        },
        {
          "indexed": true,
          "internalType": "address",
          "name": "approved",
          "type": "address"
        },
        {
          "indexed": true,
          "internalType": "uint256",
          "name": "tokenId",
          "type": "uint256"
        }
      ],
      "name": "Approval",
      "type": "event"
    },
    {
      "anonymous": false,
      "inputs": [
        {
          "indexed": false,
          "internalType": "address",
          "name": "owner",
          "type": "address"
        },
        {
          "indexed": false,
          "internalType": "uint256",
          "name": "kittyId",
          "type": "uint256"
        },
        {
          "indexed": false,
          "internalType": "uint256",
          "name": "genes",
          "type": "uint256"
        },
        {
          "indexed": false,
          "internalType": "uint256",
          "name": "mumId",
          "type": "uint256"
        },
        {
          "indexed": false,
          "internalType": "uint256",
          "name": "dadId",
          "type": "uint256"
        }
      ],
      "name": "Birth",
      "type": "event"
    },
    {
      "anonymous": false,
      "inputs": [
        {
          "indexed": true,
          "internalType": "address",
          "name": "from",
          "type": "address"
        },
        {
          "indexed": true,
          "internalType": "address",
          "name": "to",
          "type": "address"
        },
        {
          "indexed": true,
          "internalType": "uint256",
          "name": "tokenId",
          "type": "uint256"
        }
      ],
      "name": "Transfer",
      "type": "event"
    },
    {
      "inputs": [],
      "name": "LIMIT_GEN0",
      "outputs": [
        {
          "internalType": "uint256",
          "name": "",
          "type": "uint256"
        }
      ],
      "stateMutability": "view",
      "type": "function",
      "constant": true
    },
    {
      "inputs": [
        {
          "internalType": "address",
          "name": "",
          "type": "address"
        }
      ],
      "name": "balances",
      "outputs": [
        {
          "internalType": "uint256",
          "name": "",
          "type": "uint256"
        }
      ],
      "stateMutability": "view",
      "type": "function",
      "constant": true
    },
    {
      "inputs": [],
      "name": "gen0Counter",
      "outputs": [
        {
          "internalType": "uint256",
          "name": "",
          "type": "uint256"
        }
      ],
      "stateMutability": "view",
      "type": "function",
      "constant": true
    },
    {
      "inputs": [],
      "name": "name",
      "outputs": [
        {
          "internalType": "string",
          "name": "",
          "type": "string"
        }
      ],
      "stateMutability": "view",
      "type": "function",
      "constant": true
    },
    {
      "inputs": [],
      "name": "owner",
      "outputs": [
        {
          "internalType": "address",
          "name": "",
          "type": "address"
        }
      ],
      "stateMutability": "view",
      "type": "function",
      "constant": true
    },
    {
      "inputs": [],
      "name": "symbol",
      "outputs": [
        {
          "internalType": "string",
          "name": "",
          "type": "string"
        }
      ],
      "stateMutability": "view",
      "type": "function",
      "constant": true
    },
    {
      "inputs": [
        {
          "internalType": "uint256",
          "name": "",
          "type": "uint256"
        }
      ],
      "name": "tokenOwner",
      "outputs": [
        {
          "internalType": "address",
          "name": "",
          "type": "address"
        }
      ],
      "stateMutability": "view",
      "type": "function",
      "constant": true
    },
    {
      "inputs": [
        {
          "internalType": "address",
          "name": "newOwner",
          "type": "address"
        }
      ],
      "name": "transferOwnership",
      "outputs": [],
      "stateMutability": "nonpayable",
      "type": "function"
    },
    {
      "inputs": [
        {
          "internalType": "uint256",
          "name": "_genes",
          "type": "uint256"
        }
      ],
      "name": "createKittyGen0",
      "outputs": [],
      "stateMutability": "nonpayable",
      "type": "function"
    },
    {
      "inputs": [
        {
          "internalType": "uint256",
          "name": "_id",
          "type": "uint256"
        }
      ],
      "name": "getKitty",
      "outputs": [
        {
          "internalType": "uint256",
          "name": "genes",
          "type": "uint256"
        },
        {
          "internalType": "uint256",
          "name": "birthTime",
          "type": "uint256"
        },
        {
          "internalType": "uint256",
          "name": "mumId",
          "type": "uint256"
        },
        {
          "internalType": "uint256",
          "name": "dadId",
          "type": "uint256"
        },
        {
          "internalType": "uint256",
          "name": "generation",
          "type": "uint256"
        }
      ],
      "stateMutability": "view",
      "type": "function",
      "constant": true
    },
    {
      "inputs": [
        {
          "internalType": "address",
          "name": "owner",
          "type": "address"
        }
      ],
      "name": "balanceOf",
      "outputs": [
        {
          "internalType": "uint256",
          "name": "",
          "type": "uint256"
        }
      ],
      "stateMutability": "view",
      "type": "function",
      "constant": true
    },
    {
      "inputs": [],
      "name": "totalSupply",
      "outputs": [
        {
          "internalType": "uint256",
          "name": "",
          "type": "uint256"
        }
      ],
      "stateMutability": "view",
      "type": "function",
      "constant": true
    },
    {
      "inputs": [
        {
          "internalType": "uint256",
          "name": "tokenId",
          "type": "uint256"
        }
      ],
      "name": "ownerOf",
      "outputs": [
        {
          "internalType": "address",
          "name": "",
          "type": "address"
        }
      ],
      "stateMutability": "view",
      "type": "function",
      "constant": true
    },
    {
      "inputs": [
        {
          "internalType": "address",
          "name": "to",
          "type": "address"
        },
        {
          "internalType": "uint256",
          "name": "tokenId",
          "type": "uint256"
        }
      ],
      "name": "transfer",
      "outputs": [],
      "stateMutability": "nonpayable",
      "type": "function"
    }
  ],
  "bytecode": "0x608060405234801561001057600080fd5b50336000806101000a81548173ffffffffffffffffffffffffffffffffffffffff021916908373ffffffffffffffffffffffffffffffffffffffff160217905550610f5e806100606000396000f3fe608060405234801561001057600080fd5b50600436106100ea5760003560e01c80638da5cb5b1161008c578063d5a776ca11610066578063d5a776ca14610261578063e98b7f4d1461027d578063ef5e94aa146102b1578063f2fde38b146102cf576100ea565b80638da5cb5b1461020957806395d89b4114610227578063a9059cbb14610245576100ea565b806327e235e3116100c857806327e235e31461015b5780636352211e1461018b57806370a08231146101bb578063880ffb0c146101eb576100ea565b806306fdde03146100ef57806318160ddd1461010d5780631caaa4871461012b575b600080fd5b6100f76102eb565b6040516101049190610b8b565b60405180910390f35b610115610324565b6040516101229190610bc6565b60405180910390f35b61014560048036038101906101409190610c12565b610331565b6040516101529190610c80565b60405180910390f35b61017560048036038101906101709190610cc7565b610364565b6040516101829190610bc6565b60405180910390f35b6101a560048036038101906101a09190610c12565b61037c565b6040516101b29190610c80565b60405180910390f35b6101d560048036038101906101d09190610cc7565b6103b9565b6040516101e29190610bc6565b60405180910390f35b6101f3610402565b6040516102009190610bc6565b60405180910390f35b610211610407565b60405161021e9190610c80565b60405180910390f35b61022f61042b565b60405161023c9190610b8b565b60405180910390f35b61025f600480360381019061025a9190610cf4565b610464565b005b61027b60048036038101906102769190610c12565b61054f565b005b61029760048036038101906102929190610c12565b6105e1565b6040516102a8959493929190610d34565b60405180910390f35b6102b9610708565b6040516102c69190610bc6565b60405180910390f35b6102e960048036038101906102e49190610cc7565b61070e565b005b6040518060400160405280600881526020017f5a4b69747469657300000000000000000000000000000000000000000000000081525081565b6000600180549050905090565b60036020528060005260406000206000915054906101000a900473ffffffffffffffffffffffffffffffffffffffff1681565b60026020528060005260406000206000915090505481565b60006003600083815260200190815260200160002060009054906101000a900473ffffffffffffffffffffffffffffffffffffffff169050919050565b6000600260008373ffffffffffffffffffffffffffffffffffffffff1673ffffffffffffffffffffffffffffffffffffffff168152602001908152602001600020549050919050565b600a81565b60008054906101000a900473ffffffffffffffffffffffffffffffffffffffff1681565b6040518060400160405280600281526020017f5a4b00000000000000000000000000000000000000000000000000000000000081525081565b600073ffffffffffffffffffffffffffffffffffffffff168273ffffffffffffffffffffffffffffffffffffffff160361049d57600080fd5b3073ffffffffffffffffffffffffffffffffffffffff168273ffffffffffffffffffffffffffffffffffffffff16036104d557600080fd5b3373ffffffffffffffffffffffffffffffffffffffff166003600083815260200190815260200160002060009054906101000a900473ffffffffffffffffffffffffffffffffffffffff1673ffffffffffffffffffffffffffffffffffffffff161461054057600080fd5b61054b3383836107de565b5050565b60008054906101000a900473ffffffffffffffffffffffffffffffffffffffff1673ffffffffffffffffffffffffffffffffffffffff163373ffffffffffffffffffffffffffffffffffffffff16146105a757600080fd5b600a600454106105b657600080fd5b6105c58160008060003361096f565b50600460008154809291906105d990610db6565b919050555050565b600080600080600080600187815481106105fe576105fd610dfe565b5b90600052602060002090600202016040518060a0016040529081600082015481526020016001820160009054906101000a900467ffffffffffffffff1667ffffffffffffffff1667ffffffffffffffff1681526020016001820160089054906101000a900463ffffffff1663ffffffff1663ffffffff16815260200160018201600c9054906101000a900463ffffffff1663ffffffff1663ffffffff1681526020016001820160109054906101000a900461ffff1661ffff1661ffff1681525050905080600001519550806020015167ffffffffffffffff169450806040015163ffffffff169350806060015163ffffffff169250806080015161ffff1691505091939590929450565b60045481565b60008054906101000a900473ffffffffffffffffffffffffffffffffffffffff1673ffffffffffffffffffffffffffffffffffffffff163373ffffffffffffffffffffffffffffffffffffffff161461076657600080fd5b600073ffffffffffffffffffffffffffffffffffffffff168173ffffffffffffffffffffffffffffffffffffffff16146107db57806000806101000a81548173ffffffffffffffffffffffffffffffffffffffff021916908373ffffffffffffffffffffffffffffffffffffffff1602179055505b50565b600260008373ffffffffffffffffffffffffffffffffffffffff1673ffffffffffffffffffffffffffffffffffffffff168152602001908152602001600020600081548092919061082e90610db6565b9190505550816003600083815260200190815260200160002060006101000a81548173ffffffffffffffffffffffffffffffffffffffff021916908373ffffffffffffffffffffffffffffffffffffffff160217905550600073ffffffffffffffffffffffffffffffffffffffff168373ffffffffffffffffffffffffffffffffffffffff161461090f57600260008473ffffffffffffffffffffffffffffffffffffffff1673ffffffffffffffffffffffffffffffffffffffff168152602001908152602001600020600081548092919061090990610e2d565b91905055505b808273ffffffffffffffffffffffffffffffffffffffff168473ffffffffffffffffffffffffffffffffffffffff167fddf252ad1be2c89b69c2b068fc378daa952ba7f163c4a11628f55a4df523b3ef60405160405180910390a4505050565b6000806040518060a001604052808881526020014267ffffffffffffffff1681526020018763ffffffff1681526020018663ffffffff1681526020018561ffff16815250905060018190806001815401808255809150506001900390600052602060002090600202016000909190919091506000820151816000015560208201518160010160006101000a81548167ffffffffffffffff021916908367ffffffffffffffff16021790555060408201518160010160086101000a81548163ffffffff021916908363ffffffff160217905550606082015181600101600c6101000a81548163ffffffff021916908363ffffffff16021790555060808201518160010160106101000a81548161ffff021916908361ffff1602179055505050600060018080549050610aa09190610e56565b9050610aae600085836107de565b7f0a5311bd2a6608f08a180df2ee7c5946819a649b204b554bb8e39825b2c50ad584828a8a8a604051610ae5959493929190610ed5565b60405180910390a1809250505095945050505050565b600081519050919050565b600082825260208201905092915050565b60005b83811015610b35578082015181840152602081019050610b1a565b60008484015250505050565b6000601f19601f8301169050919050565b6000610b5d82610afb565b610b678185610b06565b9350610b77818560208601610b17565b610b8081610b41565b840191505092915050565b60006020820190508181036000830152610ba58184610b52565b905092915050565b6000819050919050565b610bc081610bad565b82525050565b6000602082019050610bdb6000830184610bb7565b92915050565b600080fd5b610bef81610bad565b8114610bfa57600080fd5b50565b600081359050610c0c81610be6565b92915050565b600060208284031215610c2857610c27610be1565b5b6000610c3684828501610bfd565b91505092915050565b600073ffffffffffffffffffffffffffffffffffffffff82169050919050565b6000610c6a82610c3f565b9050919050565b610c7a81610c5f565b82525050565b6000602082019050610c956000830184610c71565b92915050565b610ca481610c5f565b8114610caf57600080fd5b50565b600081359050610cc181610c9b565b92915050565b600060208284031215610cdd57610cdc610be1565b5b6000610ceb84828501610cb2565b91505092915050565b60008060408385031215610d0b57610d0a610be1565b5b6000610d1985828601610cb2565b9250506020610d2a85828601610bfd565b9150509250929050565b600060a082019050610d496000830188610bb7565b610d566020830187610bb7565b610d636040830186610bb7565b610d706060830185610bb7565b610d7d6080830184610bb7565b9695505050505050565b7f4e487b7100000000000000000000000000000000000000000000000000000000600052601160045260246000fd5b6000610dc182610bad565b91507fffffffffffffffffffffffffffffffffffffffffffffffffffffffffffffffff8203610df357610df2610d87565b5b600182019050919050565b7f4e487b7100000000000000000000000000000000000000000000000000000000600052603260045260246000fd5b6000610e3882610bad565b915060008203610e4b57610e4a610d87565b5b600182039050919050565b6000610e6182610bad565b9150610e6c83610bad565b9250828203905081811115610e8457610e83610d87565b5b92915050565b600063ffffffff82169050919050565b6000819050919050565b6000610ebf610eba610eb584610e8a565b610e9a565b610bad565b9050919050565b610ecf81610ea4565b82525050565b600060a082019050610eea6000830188610c71565b610ef76020830187610bb7565b610f046040830186610bb7565b610f116060830185610ec6565b610f1e6080830184610ec6565b969550505050505056fea264697066735822122093361bcb745cc28ed7dacf68d3f21b25e61cd51b3abea60d352743a97bba3e0c64736f6c63430008110033",
  "immutableReferences": {},
  "source": "// SPDX-License-Identifier: MIT\r\n\r\npragma solidity 0.8.17;\r\nimport \"./IERC721.sol\";\r\nimport \"./Ownable.sol\";\r\n\r\ncontract KittyContract is IERC721, Ownable{\r\n\r\n    string public constant name = \"ZKitties\";\r\n    string public constant symbol = \"ZK\";\r\n    uint public constant LIMIT_GEN0 = 10;\r\n\r\n    struct Kitty{\r\n        uint256 genes;\r\n        uint64 birthTime;\r\n        uint32 mumId;\r\n        uint32 dadId;\r\n        uint16 generation;\r\n    }\r\n\r\n    Kitty[] kitties;\r\n    \r\n    mapping (address => uint) public balances;\r\n    mapping (uint => address) public tokenOwner;\r\n\r\n    uint256 public gen0Counter;\r\n\r\n    event Birth(address owner, uint kittyId, uint genes, uint mumId, uint dadId);\r\n\r\n    function createKittyGen0(uint _genes) public onlyOwner{\r\n        require(gen0Counter < LIMIT_GEN0);\r\n        _createKitty(_genes, 0, 0, 0, msg.sender);\r\n        gen0Counter++;\r\n    }\r\n\r\n    function getKitty(uint _id) external view returns(\r\n        uint256 genes,\r\n        uint256 birthTime,\r\n        uint256 mumId,\r\n        uint256 dadId,\r\n        uint256 generation\r\n    ){\r\n            Kitty memory kitty = kitties[_id];\r\n            genes = uint256(kitty.genes);\r\n            birthTime = uint256(kitty.birthTime);\r\n            mumId = uint256(kitty.mumId);\r\n            dadId = uint256(kitty.dadId);\r\n            generation = uint256(kitty.generation);\r\n        }\r\n\r\n    function _createKitty(\r\n        uint256 _genes,\r\n        uint32 _mumId,\r\n        uint32 _dadId,\r\n        uint16 _generation,\r\n        address _owner\r\n    ) internal returns(uint256){\r\n        Kitty memory kitty = Kitty(\r\n            _genes,\r\n            uint64(block.timestamp),\r\n            uint32(_mumId),\r\n            uint32(_dadId),\r\n            _generation\r\n        );\r\n        kitties.push(kitty);\r\n        uint kittyId = kitties.length - 1;\r\n        _transfer(address(0), _owner, kittyId);\r\n        emit Birth(_owner, kittyId, _genes, _mumId, _dadId);\r\n        return kittyId;\r\n    }\r\n\r\n    function balanceOf(address owner) external view returns (uint256){\r\n        return balances[owner];\r\n    }\r\n\r\n    function totalSupply() external view returns (uint256){\r\n        return kitties.length;\r\n    }\r\n\r\n    function ownerOf(uint256 tokenId) external view returns (address){\r\n        return tokenOwner[tokenId];\r\n    }\r\n\r\n    function transfer(address to, uint256 tokenId) external{\r\n        require(to != address(0));\r\n        require(to != address(this));\r\n        require(tokenOwner[tokenId] == msg.sender);\r\n        _transfer(msg.sender, to, tokenId);\r\n    }\r\n\r\n    function _transfer(address _from, address _to, uint256 _tokenId) internal{\r\n        balances[_to]++;\r\n        tokenOwner[_tokenId] = _to;\r\n        if(_from != address(0)){\r\n            balances[_from]--;\r\n        }\r\n        emit Transfer(_from, _to, _tokenId);\r\n    }\r\n\r\n}\r\n\r\n\r\n\r\n",
  "sourcePath": "C:\\Users\\Zayna\\Desktop\\cryptokitties-clone\\contracts\\Kitty.sol",
  "compiler": {
    "name": "solc",
    "version": "0.8.17+commit.8df45f5f.Emscripten.clang"
  },
  "schemaVersion": "3.4.3",
  "updatedAt": "2022-09-21T22:50:10.532Z",
  "networkType": "ethereum",
  "devdoc": {
    "kind": "dev",
    "methods": {
      "balanceOf(address)": {
        "details": "Returns the number of tokens in ``owner``'s account."
      },
      "ownerOf(uint256)": {
        "details": "Returns the owner of the `tokenId` token. Requirements: - `tokenId` must exist."
      },
      "transferOwnership(address)": {
        "details": "Allows the current owner to transfer control of the contract to a newOwner.",
        "params": {
          "newOwner": "The address to transfer ownership to."
        }
      }
    },
    "version": 1
  },
  "userdoc": {
    "kind": "user",
    "methods": {},
    "version": 1
  }
}